{
  "contracts/ExampleContract.sol": {
    "ExampleContract": {
      "abi": [
        {
          "inputs": [
            {
              "internalType": "address",
              "name": "expected",
              "type": "address"
            },
            {
              "internalType": "address",
              "name": "actual",
              "type": "address"
            }
          ],
          "name": "RandomError",
          "type": "error"
        },
        {
          "anonymous": false,
          "inputs": [
            {
              "indexed": true,
              "internalType": "address",
              "name": "a",
              "type": "address"
            },
            {
              "indexed": false,
              "internalType": "uint256",
              "name": "b",
              "type": "uint256"
            }
          ],
          "name": "DoSomething",
          "type": "event"
        },
        {
          "inputs": [
            {
              "internalType": "uint256",
              "name": "num",
              "type": "uint256"
            }
          ],
          "name": "anotherThing",
          "outputs": [
            {
              "internalType": "uint256",
              "name": "",
              "type": "uint256"
            }
          ],
          "stateMutability": "pure",
          "type": "function"
        },
        {
          "inputs": [],
          "name": "boop",
          "outputs": [
            {
              "internalType": "address",
              "name": "",
              "type": "address"
            }
          ],
          "stateMutability": "view",
          "type": "function"
        },
        {
          "inputs": [
            {
              "internalType": "address",
              "name": "a",
              "type": "address"
            },
            {
              "internalType": "uint256",
              "name": "b",
              "type": "uint256"
            }
          ],
          "name": "doSomething",
          "outputs": [
            {
              "internalType": "uint256",
              "name": "foo",
              "type": "uint256"
            },
            {
              "internalType": "uint256",
              "name": "bar",
              "type": "uint256"
            }
          ],
          "stateMutability": "nonpayable",
          "type": "function"
        },
        {
          "inputs": [
            {
              "internalType": "address",
              "name": "first",
              "type": "address"
            },
            {
              "internalType": "uint256",
              "name": "second",
              "type": "uint256"
            }
          ],
          "name": "extraFunc",
          "outputs": [
            {
              "internalType": "address",
              "name": "",
              "type": "address"
            }
          ],
          "stateMutability": "payable",
          "type": "function"
        },
        {
          "inputs": [
            {
              "internalType": "address",
              "name": "first",
              "type": "address"
            },
            {
              "internalType": "uint256",
              "name": "second",
              "type": "uint256"
            }
          ],
          "name": "extraFuncSecond",
          "outputs": [
            {
              "internalType": "uint256",
              "name": "a",
              "type": "uint256"
            },
            {
              "internalType": "uint256",
              "name": "",
              "type": "uint256"
            }
          ],
          "stateMutability": "payable",
          "type": "function"
        },
        {
          "inputs": [],
          "name": "libAddressManager",
          "outputs": [
            {
              "internalType": "address",
              "name": "",
              "type": "address"
            }
          ],
          "stateMutability": "view",
          "type": "function"
        },
        {
          "inputs": [],
          "name": "pay",
          "outputs": [],
          "stateMutability": "payable",
          "type": "function"
        }
      ],
      "devdoc": {
        "errors": {
          "RandomError(address,address)": [
            {
              "details": "More info about the error.",
              "params": {
                "actual": "Actual address",
                "expected": "Expected address"
              }
            }
          ]
        },
        "kind": "dev",
        "methods": {
          "anotherThing(uint256)": {
            "details": "More info about doing another thing when the function is called.",
            "params": {
              "num": "A random number"
            },
            "returns": {
              "_0": "A random variable"
            }
          },
          "doSomething(address,uint256)": {
            "details": "More info about the doSomething, and this even works when the explanation is on two lines.",
            "params": {
              "a": "Address to do something",
              "b": "Number to do something"
            },
            "returns": {
              "bar": "Second return variable",
              "foo": "First return variable"
            }
          },
          "extraFuncSecond(address,uint256)": {
            "params": {
              "first": "The first arg"
            },
            "returns": {
              "_1": "{uint} The second returns arg",
              "a": "The first returns arg"
            }
          }
        },
        "version": 1
      },
      "evm": {
        "bytecode": {
          "linkReferences": {},
          "object": "608060405234801561001057600080fd5b506103cb806100206000396000f3fe6080604052600436106100705760003560e01c806328a831d11161004e57806328a831d1146100e0578063299ca4781461010b5780637d803ad814610136578063cfe49f1e1461017457610070565b806308ab4773146100755780630cf387bb146100a65780631b9265b8146100d6575b600080fd5b61008f600480360381019061008a91906102ab565b6101b1565b60405161009d9291906102fa565b60405180910390f35b6100c060048036038101906100bb91906102ab565b6101c2565b6040516100cd9190610332565b60405180910390f35b6100de6101ca565b005b3480156100ec57600080fd5b506100f56101cc565b6040516101029190610332565b60405180910390f35b34801561011757600080fd5b506101206101d1565b60405161012d9190610332565b60405180910390f35b34801561014257600080fd5b5061015d600480360381019061015891906102ab565b6101f5565b60405161016b9291906102fa565b60405180910390f35b34801561018057600080fd5b5061019b6004803603810190610196919061034d565b610207565b6040516101a8919061037a565b60405180910390f35b600080602a80915091509250929050565b600092915050565b565b600090565b60008054906101000a900473ffffffffffffffffffffffffffffffffffffffff1681565b60008060046002915091509250929050565b600060059050919050565b600080fd5b600073ffffffffffffffffffffffffffffffffffffffff82169050919050565b600061024282610217565b9050919050565b61025281610237565b811461025d57600080fd5b50565b60008135905061026f81610249565b92915050565b6000819050919050565b61028881610275565b811461029357600080fd5b50565b6000813590506102a58161027f565b92915050565b600080604083850312156102c2576102c1610212565b5b60006102d085828601610260565b92505060206102e185828601610296565b9150509250929050565b6102f481610275565b82525050565b600060408201905061030f60008301856102eb565b61031c60208301846102eb565b9392505050565b61032c81610237565b82525050565b60006020820190506103476000830184610323565b92915050565b60006020828403121561036357610362610212565b5b600061037184828501610296565b91505092915050565b600060208201905061038f60008301846102eb565b9291505056fea2646970667358221220355259035f53322ff63bbeeb4509aac09425dcf9cd0ee5146a850fe8799b5a7e64736f6c634300080a0033",
          "opcodes": "PUSH1 0x80 PUSH1 0x40 MSTORE CALLVALUE DUP1 ISZERO PUSH2 0x10 JUMPI PUSH1 0x0 DUP1 REVERT JUMPDEST POP PUSH2 0x3CB DUP1 PUSH2 0x20 PUSH1 0x0 CODECOPY PUSH1 0x0 RETURN INVALID PUSH1 0x80 PUSH1 0x40 MSTORE PUSH1 0x4 CALLDATASIZE LT PUSH2 0x70 JUMPI PUSH1 0x0 CALLDATALOAD PUSH1 0xE0 SHR DUP1 PUSH4 0x28A831D1 GT PUSH2 0x4E JUMPI DUP1 PUSH4 0x28A831D1 EQ PUSH2 0xE0 JUMPI DUP1 PUSH4 0x299CA478 EQ PUSH2 0x10B JUMPI DUP1 PUSH4 0x7D803AD8 EQ PUSH2 0x136 JUMPI DUP1 PUSH4 0xCFE49F1E EQ PUSH2 0x174 JUMPI PUSH2 0x70 JUMP JUMPDEST DUP1 PUSH4 0x8AB4773 EQ PUSH2 0x75 JUMPI DUP1 PUSH4 0xCF387BB EQ PUSH2 0xA6 JUMPI DUP1 PUSH4 0x1B9265B8 EQ PUSH2 0xD6 JUMPI JUMPDEST PUSH1 0x0 DUP1 REVERT JUMPDEST PUSH2 0x8F PUSH1 0x4 DUP1 CALLDATASIZE SUB DUP2 ADD SWAP1 PUSH2 0x8A SWAP2 SWAP1 PUSH2 0x2AB JUMP JUMPDEST PUSH2 0x1B1 JUMP JUMPDEST PUSH1 0x40 MLOAD PUSH2 0x9D SWAP3 SWAP2 SWAP1 PUSH2 0x2FA JUMP JUMPDEST PUSH1 0x40 MLOAD DUP1 SWAP2 SUB SWAP1 RETURN JUMPDEST PUSH2 0xC0 PUSH1 0x4 DUP1 CALLDATASIZE SUB DUP2 ADD SWAP1 PUSH2 0xBB SWAP2 SWAP1 PUSH2 0x2AB JUMP JUMPDEST PUSH2 0x1C2 JUMP JUMPDEST PUSH1 0x40 MLOAD PUSH2 0xCD SWAP2 SWAP1 PUSH2 0x332 JUMP JUMPDEST PUSH1 0x40 MLOAD DUP1 SWAP2 SUB SWAP1 RETURN JUMPDEST PUSH2 0xDE PUSH2 0x1CA JUMP JUMPDEST STOP JUMPDEST CALLVALUE DUP1 ISZERO PUSH2 0xEC JUMPI PUSH1 0x0 DUP1 REVERT JUMPDEST POP PUSH2 0xF5 PUSH2 0x1CC JUMP JUMPDEST PUSH1 0x40 MLOAD PUSH2 0x102 SWAP2 SWAP1 PUSH2 0x332 JUMP JUMPDEST PUSH1 0x40 MLOAD DUP1 SWAP2 SUB SWAP1 RETURN JUMPDEST CALLVALUE DUP1 ISZERO PUSH2 0x117 JUMPI PUSH1 0x0 DUP1 REVERT JUMPDEST POP PUSH2 0x120 PUSH2 0x1D1 JUMP JUMPDEST PUSH1 0x40 MLOAD PUSH2 0x12D SWAP2 SWAP1 PUSH2 0x332 JUMP JUMPDEST PUSH1 0x40 MLOAD DUP1 SWAP2 SUB SWAP1 RETURN JUMPDEST CALLVALUE DUP1 ISZERO PUSH2 0x142 JUMPI PUSH1 0x0 DUP1 REVERT JUMPDEST POP PUSH2 0x15D PUSH1 0x4 DUP1 CALLDATASIZE SUB DUP2 ADD SWAP1 PUSH2 0x158 SWAP2 SWAP1 PUSH2 0x2AB JUMP JUMPDEST PUSH2 0x1F5 JUMP JUMPDEST PUSH1 0x40 MLOAD PUSH2 0x16B SWAP3 SWAP2 SWAP1 PUSH2 0x2FA JUMP JUMPDEST PUSH1 0x40 MLOAD DUP1 SWAP2 SUB SWAP1 RETURN JUMPDEST CALLVALUE DUP1 ISZERO PUSH2 0x180 JUMPI PUSH1 0x0 DUP1 REVERT JUMPDEST POP PUSH2 0x19B PUSH1 0x4 DUP1 CALLDATASIZE SUB DUP2 ADD SWAP1 PUSH2 0x196 SWAP2 SWAP1 PUSH2 0x34D JUMP JUMPDEST PUSH2 0x207 JUMP JUMPDEST PUSH1 0x40 MLOAD PUSH2 0x1A8 SWAP2 SWAP1 PUSH2 0x37A JUMP JUMPDEST PUSH1 0x40 MLOAD DUP1 SWAP2 SUB SWAP1 RETURN JUMPDEST PUSH1 0x0 DUP1 PUSH1 0x2A DUP1 SWAP2 POP SWAP2 POP SWAP3 POP SWAP3 SWAP1 POP JUMP JUMPDEST PUSH1 0x0 SWAP3 SWAP2 POP POP JUMP JUMPDEST JUMP JUMPDEST PUSH1 0x0 SWAP1 JUMP JUMPDEST PUSH1 0x0 DUP1 SLOAD SWAP1 PUSH2 0x100 EXP SWAP1 DIV PUSH20 0xFFFFFFFFFFFFFFFFFFFFFFFFFFFFFFFFFFFFFFFF AND DUP2 JUMP JUMPDEST PUSH1 0x0 DUP1 PUSH1 0x4 PUSH1 0x2 SWAP2 POP SWAP2 POP SWAP3 POP SWAP3 SWAP1 POP JUMP JUMPDEST PUSH1 0x0 PUSH1 0x5 SWAP1 POP SWAP2 SWAP1 POP JUMP JUMPDEST PUSH1 0x0 DUP1 REVERT JUMPDEST PUSH1 0x0 PUSH20 0xFFFFFFFFFFFFFFFFFFFFFFFFFFFFFFFFFFFFFFFF DUP3 AND SWAP1 POP SWAP2 SWAP1 POP JUMP JUMPDEST PUSH1 0x0 PUSH2 0x242 DUP3 PUSH2 0x217 JUMP JUMPDEST SWAP1 POP SWAP2 SWAP1 POP JUMP JUMPDEST PUSH2 0x252 DUP2 PUSH2 0x237 JUMP JUMPDEST DUP2 EQ PUSH2 0x25D JUMPI PUSH1 0x0 DUP1 REVERT JUMPDEST POP JUMP JUMPDEST PUSH1 0x0 DUP2 CALLDATALOAD SWAP1 POP PUSH2 0x26F DUP2 PUSH2 0x249 JUMP JUMPDEST SWAP3 SWAP2 POP POP JUMP JUMPDEST PUSH1 0x0 DUP2 SWAP1 POP SWAP2 SWAP1 POP JUMP JUMPDEST PUSH2 0x288 DUP2 PUSH2 0x275 JUMP JUMPDEST DUP2 EQ PUSH2 0x293 JUMPI PUSH1 0x0 DUP1 REVERT JUMPDEST POP JUMP JUMPDEST PUSH1 0x0 DUP2 CALLDATALOAD SWAP1 POP PUSH2 0x2A5 DUP2 PUSH2 0x27F JUMP JUMPDEST SWAP3 SWAP2 POP POP JUMP JUMPDEST PUSH1 0x0 DUP1 PUSH1 0x40 DUP4 DUP6 SUB SLT ISZERO PUSH2 0x2C2 JUMPI PUSH2 0x2C1 PUSH2 0x212 JUMP JUMPDEST JUMPDEST PUSH1 0x0 PUSH2 0x2D0 DUP6 DUP3 DUP7 ADD PUSH2 0x260 JUMP JUMPDEST SWAP3 POP POP PUSH1 0x20 PUSH2 0x2E1 DUP6 DUP3 DUP7 ADD PUSH2 0x296 JUMP JUMPDEST SWAP2 POP POP SWAP3 POP SWAP3 SWAP1 POP JUMP JUMPDEST PUSH2 0x2F4 DUP2 PUSH2 0x275 JUMP JUMPDEST DUP3 MSTORE POP POP JUMP JUMPDEST PUSH1 0x0 PUSH1 0x40 DUP3 ADD SWAP1 POP PUSH2 0x30F PUSH1 0x0 DUP4 ADD DUP6 PUSH2 0x2EB JUMP JUMPDEST PUSH2 0x31C PUSH1 0x20 DUP4 ADD DUP5 PUSH2 0x2EB JUMP JUMPDEST SWAP4 SWAP3 POP POP POP JUMP JUMPDEST PUSH2 0x32C DUP2 PUSH2 0x237 JUMP JUMPDEST DUP3 MSTORE POP POP JUMP JUMPDEST PUSH1 0x0 PUSH1 0x20 DUP3 ADD SWAP1 POP PUSH2 0x347 PUSH1 0x0 DUP4 ADD DUP5 PUSH2 0x323 JUMP JUMPDEST SWAP3 SWAP2 POP POP JUMP JUMPDEST PUSH1 0x0 PUSH1 0x20 DUP3 DUP5 SUB SLT ISZERO PUSH2 0x363 JUMPI PUSH2 0x362 PUSH2 0x212 JUMP JUMPDEST JUMPDEST PUSH1 0x0 PUSH2 0x371 DUP5 DUP3 DUP6 ADD PUSH2 0x296 JUMP JUMPDEST SWAP2 POP POP SWAP3 SWAP2 POP POP JUMP JUMPDEST PUSH1 0x0 PUSH1 0x20 DUP3 ADD SWAP1 POP PUSH2 0x38F PUSH1 0x0 DUP4 ADD DUP5 PUSH2 0x2EB JUMP JUMPDEST SWAP3 SWAP2 POP POP JUMP INVALID LOG2 PUSH5 0x6970667358 0x22 SLT KECCAK256 CALLDATALOAD MSTORE MSIZE SUB 0x5F MSTORE8 ORIGIN 0x2F 0xF6 EXTCODESIZE 0xBE 0xEB GASLIMIT MULMOD 0xAA 0xC0 SWAP5 0x25 0xDC 0xF9 0xCD 0xE 0xE5 EQ PUSH11 0x850FE8799B5A7E64736F6C PUSH4 0x4300080A STOP CALLER "
        },
        "methodIdentifiers": {
          "anotherThing(uint256)": "cfe49f1e",
          "boop()": "28a831d1",
          "doSomething(address,uint256)": "7d803ad8",
          "extraFunc(address,uint256)": "0cf387bb",
          "extraFuncSecond(address,uint256)": "08ab4773",
          "libAddressManager()": "299ca478",
          "pay()": "1b9265b8"
        }
      },
      "userdoc": {
        "errors": {
          "RandomError(address,address)": [
            {
              "notice": "Thrown when an error happens."
            }
          ]
        },
        "events": {
          "DoSomething(address,uint256)": {
            "notice": "Emitted when the function doSomething is called."
          }
        },
        "kind": "user",
        "methods": {
          "anotherThing(uint256)": {
            "notice": "Does another thing when the function is called."
          },
          "boop()": {
            "notice": "Poorly documented function starting with weird spaces."
          },
          "doSomething(address,uint256)": {
            "notice": "Does something when this function is called."
          },
          "extraFunc(address,uint256)": {
            "notice": "Documented ?"
          },
          "extraFuncSecond(address,uint256)": {
            "notice": "Documented with no params"
          },
          "pay()": {
            "notice": "A bad documented payable function."
          }
        },
        "version": 1
      }
    }
  }
}