{
  "contracts/ExampleContract.sol": {
    "ExampleContract": {
      "abi": [
        {
          "inputs": [
            {
              "internalType": "address",
              "name": "expected",
              "type": "address"
            },
            {
              "internalType": "address",
              "name": "actual",
              "type": "address"
            }
          ],
          "name": "RandomError",
          "type": "error"
        },
        {
          "anonymous": false,
          "inputs": [
            {
              "indexed": true,
              "internalType": "address",
              "name": "a",
              "type": "address"
            },
            {
              "indexed": false,
              "internalType": "uint256",
              "name": "b",
              "type": "uint256"
            }
          ],
          "name": "DoSomething",
          "type": "event"
        },
        {
          "inputs": [
            {
              "internalType": "uint256",
              "name": "num",
              "type": "uint256"
            }
          ],
          "name": "anotherThing",
          "outputs": [
            {
              "internalType": "uint256",
              "name": "",
              "type": "uint256"
            }
          ],
          "stateMutability": "pure",
          "type": "function"
        },
        {
          "inputs": [],
          "name": "boop",
          "outputs": [
            {
              "internalType": "address",
              "name": "",
              "type": "address"
            }
          ],
          "stateMutability": "view",
          "type": "function"
        },
        {
          "inputs": [
            {
              "internalType": "address",
              "name": "a",
              "type": "address"
            },
            {
              "internalType": "uint256",
              "name": "b",
              "type": "uint256"
            }
          ],
          "name": "doSomething",
          "outputs": [
            {
              "internalType": "uint256",
              "name": "foo",
              "type": "uint256"
            },
            {
              "internalType": "uint256",
              "name": "bar",
              "type": "uint256"
            }
          ],
          "stateMutability": "nonpayable",
          "type": "function"
        },
        {
          "inputs": [],
          "name": "pay",
          "outputs": [],
          "stateMutability": "payable",
          "type": "function"
        }
      ],
      "devdoc": {
        "errors": {
          "RandomError(address,address)": [
            {
              "details": "More info about the error.",
              "params": {
                "actual": "Actual address",
                "expected": "Expected address"
              }
            }
          ]
        },
        "kind": "dev",
        "methods": {
          "anotherThing(uint256)": {
            "details": "More info about doing another thing when the function is called.",
            "params": {
              "num": "A random number"
            },
            "returns": {
              "_0": "A random variable"
            }
          },
          "doSomething(address,uint256)": {
            "details": "More info about the doSomething, and this even works when the explanation is on two lines.",
            "params": {
              "a": "Address to do something",
              "b": "Number to do something"
            },
            "returns": {
              "bar": "Second return variable",
              "foo": "First return variable"
            }
          }
        },
        "version": 1
      },
      "evm": {
        "bytecode": {
          "linkReferences": {},
          "object": "608060405234801561001057600080fd5b506102d1806100206000396000f3fe60806040526004361061003f5760003560e01c80631b9265b81461004457806328a831d11461004e5780637d803ad814610079578063cfe49f1e146100b7575b600080fd5b61004c6100f4565b005b34801561005a57600080fd5b506100636100f6565b6040516100709190610159565b60405180910390f35b34801561008557600080fd5b506100a0600480360381019061009b91906101db565b6100fb565b6040516100ae92919061022a565b60405180910390f35b3480156100c357600080fd5b506100de60048036038101906100d99190610253565b61010d565b6040516100eb9190610280565b60405180910390f35b565b600090565b60008060046002915091509250929050565b600060059050919050565b600073ffffffffffffffffffffffffffffffffffffffff82169050919050565b600061014382610118565b9050919050565b61015381610138565b82525050565b600060208201905061016e600083018461014a565b92915050565b600080fd5b61018281610138565b811461018d57600080fd5b50565b60008135905061019f81610179565b92915050565b6000819050919050565b6101b8816101a5565b81146101c357600080fd5b50565b6000813590506101d5816101af565b92915050565b600080604083850312156101f2576101f1610174565b5b600061020085828601610190565b9250506020610211858286016101c6565b9150509250929050565b610224816101a5565b82525050565b600060408201905061023f600083018561021b565b61024c602083018461021b565b9392505050565b60006020828403121561026957610268610174565b5b6000610277848285016101c6565b91505092915050565b6000602082019050610295600083018461021b565b9291505056fea2646970667358221220f5e89b381a9a18853d85c0b15f7508b02b1877fe918c4f52811548c46dc406bf64736f6c634300080a0033",
          "opcodes": "PUSH1 0x80 PUSH1 0x40 MSTORE CALLVALUE DUP1 ISZERO PUSH2 0x10 JUMPI PUSH1 0x0 DUP1 REVERT JUMPDEST POP PUSH2 0x2D1 DUP1 PUSH2 0x20 PUSH1 0x0 CODECOPY PUSH1 0x0 RETURN INVALID PUSH1 0x80 PUSH1 0x40 MSTORE PUSH1 0x4 CALLDATASIZE LT PUSH2 0x3F JUMPI PUSH1 0x0 CALLDATALOAD PUSH1 0xE0 SHR DUP1 PUSH4 0x1B9265B8 EQ PUSH2 0x44 JUMPI DUP1 PUSH4 0x28A831D1 EQ PUSH2 0x4E JUMPI DUP1 PUSH4 0x7D803AD8 EQ PUSH2 0x79 JUMPI DUP1 PUSH4 0xCFE49F1E EQ PUSH2 0xB7 JUMPI JUMPDEST PUSH1 0x0 DUP1 REVERT JUMPDEST PUSH2 0x4C PUSH2 0xF4 JUMP JUMPDEST STOP JUMPDEST CALLVALUE DUP1 ISZERO PUSH2 0x5A JUMPI PUSH1 0x0 DUP1 REVERT JUMPDEST POP PUSH2 0x63 PUSH2 0xF6 JUMP JUMPDEST PUSH1 0x40 MLOAD PUSH2 0x70 SWAP2 SWAP1 PUSH2 0x159 JUMP JUMPDEST PUSH1 0x40 MLOAD DUP1 SWAP2 SUB SWAP1 RETURN JUMPDEST CALLVALUE DUP1 ISZERO PUSH2 0x85 JUMPI PUSH1 0x0 DUP1 REVERT JUMPDEST POP PUSH2 0xA0 PUSH1 0x4 DUP1 CALLDATASIZE SUB DUP2 ADD SWAP1 PUSH2 0x9B SWAP2 SWAP1 PUSH2 0x1DB JUMP JUMPDEST PUSH2 0xFB JUMP JUMPDEST PUSH1 0x40 MLOAD PUSH2 0xAE SWAP3 SWAP2 SWAP1 PUSH2 0x22A JUMP JUMPDEST PUSH1 0x40 MLOAD DUP1 SWAP2 SUB SWAP1 RETURN JUMPDEST CALLVALUE DUP1 ISZERO PUSH2 0xC3 JUMPI PUSH1 0x0 DUP1 REVERT JUMPDEST POP PUSH2 0xDE PUSH1 0x4 DUP1 CALLDATASIZE SUB DUP2 ADD SWAP1 PUSH2 0xD9 SWAP2 SWAP1 PUSH2 0x253 JUMP JUMPDEST PUSH2 0x10D JUMP JUMPDEST PUSH1 0x40 MLOAD PUSH2 0xEB SWAP2 SWAP1 PUSH2 0x280 JUMP JUMPDEST PUSH1 0x40 MLOAD DUP1 SWAP2 SUB SWAP1 RETURN JUMPDEST JUMP JUMPDEST PUSH1 0x0 SWAP1 JUMP JUMPDEST PUSH1 0x0 DUP1 PUSH1 0x4 PUSH1 0x2 SWAP2 POP SWAP2 POP SWAP3 POP SWAP3 SWAP1 POP JUMP JUMPDEST PUSH1 0x0 PUSH1 0x5 SWAP1 POP SWAP2 SWAP1 POP JUMP JUMPDEST PUSH1 0x0 PUSH20 0xFFFFFFFFFFFFFFFFFFFFFFFFFFFFFFFFFFFFFFFF DUP3 AND SWAP1 POP SWAP2 SWAP1 POP JUMP JUMPDEST PUSH1 0x0 PUSH2 0x143 DUP3 PUSH2 0x118 JUMP JUMPDEST SWAP1 POP SWAP2 SWAP1 POP JUMP JUMPDEST PUSH2 0x153 DUP2 PUSH2 0x138 JUMP JUMPDEST DUP3 MSTORE POP POP JUMP JUMPDEST PUSH1 0x0 PUSH1 0x20 DUP3 ADD SWAP1 POP PUSH2 0x16E PUSH1 0x0 DUP4 ADD DUP5 PUSH2 0x14A JUMP JUMPDEST SWAP3 SWAP2 POP POP JUMP JUMPDEST PUSH1 0x0 DUP1 REVERT JUMPDEST PUSH2 0x182 DUP2 PUSH2 0x138 JUMP JUMPDEST DUP2 EQ PUSH2 0x18D JUMPI PUSH1 0x0 DUP1 REVERT JUMPDEST POP JUMP JUMPDEST PUSH1 0x0 DUP2 CALLDATALOAD SWAP1 POP PUSH2 0x19F DUP2 PUSH2 0x179 JUMP JUMPDEST SWAP3 SWAP2 POP POP JUMP JUMPDEST PUSH1 0x0 DUP2 SWAP1 POP SWAP2 SWAP1 POP JUMP JUMPDEST PUSH2 0x1B8 DUP2 PUSH2 0x1A5 JUMP JUMPDEST DUP2 EQ PUSH2 0x1C3 JUMPI PUSH1 0x0 DUP1 REVERT JUMPDEST POP JUMP JUMPDEST PUSH1 0x0 DUP2 CALLDATALOAD SWAP1 POP PUSH2 0x1D5 DUP2 PUSH2 0x1AF JUMP JUMPDEST SWAP3 SWAP2 POP POP JUMP JUMPDEST PUSH1 0x0 DUP1 PUSH1 0x40 DUP4 DUP6 SUB SLT ISZERO PUSH2 0x1F2 JUMPI PUSH2 0x1F1 PUSH2 0x174 JUMP JUMPDEST JUMPDEST PUSH1 0x0 PUSH2 0x200 DUP6 DUP3 DUP7 ADD PUSH2 0x190 JUMP JUMPDEST SWAP3 POP POP PUSH1 0x20 PUSH2 0x211 DUP6 DUP3 DUP7 ADD PUSH2 0x1C6 JUMP JUMPDEST SWAP2 POP POP SWAP3 POP SWAP3 SWAP1 POP JUMP JUMPDEST PUSH2 0x224 DUP2 PUSH2 0x1A5 JUMP JUMPDEST DUP3 MSTORE POP POP JUMP JUMPDEST PUSH1 0x0 PUSH1 0x40 DUP3 ADD SWAP1 POP PUSH2 0x23F PUSH1 0x0 DUP4 ADD DUP6 PUSH2 0x21B JUMP JUMPDEST PUSH2 0x24C PUSH1 0x20 DUP4 ADD DUP5 PUSH2 0x21B JUMP JUMPDEST SWAP4 SWAP3 POP POP POP JUMP JUMPDEST PUSH1 0x0 PUSH1 0x20 DUP3 DUP5 SUB SLT ISZERO PUSH2 0x269 JUMPI PUSH2 0x268 PUSH2 0x174 JUMP JUMPDEST JUMPDEST PUSH1 0x0 PUSH2 0x277 DUP5 DUP3 DUP6 ADD PUSH2 0x1C6 JUMP JUMPDEST SWAP2 POP POP SWAP3 SWAP2 POP POP JUMP JUMPDEST PUSH1 0x0 PUSH1 0x20 DUP3 ADD SWAP1 POP PUSH2 0x295 PUSH1 0x0 DUP4 ADD DUP5 PUSH2 0x21B JUMP JUMPDEST SWAP3 SWAP2 POP POP JUMP INVALID LOG2 PUSH5 0x6970667358 0x22 SLT KECCAK256 CREATE2 0xE8 SWAP12 CODESIZE BYTE SWAP11 XOR DUP6 RETURNDATASIZE DUP6 0xC0 0xB1 0x5F PUSH22 0x8B02B1877FE918C4F52811548C46DC406BF64736F6C PUSH4 0x4300080A STOP CALLER "
        },
        "methodIdentifiers": {
          "anotherThing(uint256)": "cfe49f1e",
          "boop()": "28a831d1",
          "doSomething(address,uint256)": "7d803ad8",
          "pay()": "1b9265b8"
        }
      },
      "userdoc": {
        "errors": {
          "RandomError(address,address)": [
            {
              "notice": "Thrown when an error happens."
            }
          ]
        },
        "events": {
          "DoSomething(address,uint256)": {
            "notice": "Emitted when the function doSomething is called."
          }
        },
        "kind": "user",
        "methods": {
          "anotherThing(uint256)": {
            "notice": "Does another thing when the function is called."
          },
          "boop()": {
            "notice": "Poorly documented function starting with weird spaces."
          },
          "doSomething(address,uint256)": {
            "notice": "Does something when this function is called."
          },
          "pay()": {
            "notice": "A bad documented payable function."
          }
        },
        "version": 1
      }
    }
  }
}