{
  "contracts/Bar.sol": {
    "Bar": {
      "abi": [
        {
          "inputs": [
            {
              "internalType": "bool",
              "name": "yay",
              "type": "bool"
            }
          ],
          "name": "Doh",
          "type": "error"
        },
        {
          "anonymous": false,
          "inputs": [
            {
              "indexed": false,
              "internalType": "uint256",
              "name": "foo",
              "type": "uint256"
            }
          ],
          "name": "Transfer",
          "type": "event"
        },
        {
          "inputs": [],
          "name": "avar",
          "outputs": [
            {
              "internalType": "uint40",
              "name": "",
              "type": "uint40"
            }
          ],
          "stateMutability": "view",
          "type": "function"
        },
        {
          "inputs": [
            {
              "internalType": "uint256",
              "name": "bar",
              "type": "uint256"
            },
            {
              "internalType": "address",
              "name": "aar",
              "type": "address"
            }
          ],
          "name": "baap",
          "outputs": [],
          "stateMutability": "nonpayable",
          "type": "function"
        },
        {
          "inputs": [
            {
              "internalType": "uint256",
              "name": "bar",
              "type": "uint256"
            }
          ],
          "name": "boop",
          "outputs": [],
          "stateMutability": "nonpayable",
          "type": "function"
        },
        {
          "inputs": [
            {
              "components": [
                {
                  "internalType": "uint256",
                  "name": "paramA",
                  "type": "uint256"
                },
                {
                  "internalType": "address",
                  "name": "paramB",
                  "type": "address"
                }
              ],
              "internalType": "struct IBar.T",
              "name": "t",
              "type": "tuple"
            }
          ],
          "name": "set",
          "outputs": [],
          "stateMutability": "nonpayable",
          "type": "function"
        }
      ],
      "devdoc": {
        "author": "Primitive",
        "details": "Blablou",
        "kind": "dev",
        "methods": {
          "baap(uint256,address)": {
            "params": {
              "aar": "Address of aar",
              "bar": "Number of bar"
            }
          }
        },
        "title": "Bar contract",
        "version": 1
      },
      "evm": {
        "bytecode": {
          "linkReferences": {},
          "object": "608060405234801561001057600080fd5b50610371806100206000396000f3fe608060405234801561001057600080fd5b506004361061004c5760003560e01c80630193c8b8146100515780632a82e3421461006d5780635d1ea94814610089578063ba3ebacb146100a5575b600080fd5b61006b60048036038101906100669190610266565b6100c3565b005b61008760048036038101906100829190610293565b6100c6565b005b6100a3600480360381019061009e91906102c0565b6100c9565b005b6100ad6100cd565b6040516100ba9190610320565b60405180910390f35b50565b50565b5050565b60008054906101000a900464ffffffffff1681565b6000604051905090565b600080fd5b600080fd5b6000601f19601f8301169050919050565b7f4e487b7100000000000000000000000000000000000000000000000000000000600052604160045260246000fd5b61013f826100f6565b810181811067ffffffffffffffff8211171561015e5761015d610107565b5b80604052505050565b60006101716100e2565b905061017d8282610136565b919050565b6000819050919050565b61019581610182565b81146101a057600080fd5b50565b6000813590506101b28161018c565b92915050565b600073ffffffffffffffffffffffffffffffffffffffff82169050919050565b60006101e3826101b8565b9050919050565b6101f3816101d8565b81146101fe57600080fd5b50565b600081359050610210816101ea565b92915050565b60006040828403121561022c5761022b6100f1565b5b6102366040610167565b90506000610246848285016101a3565b600083015250602061025a84828501610201565b60208301525092915050565b60006040828403121561027c5761027b6100ec565b5b600061028a84828501610216565b91505092915050565b6000602082840312156102a9576102a86100ec565b5b60006102b7848285016101a3565b91505092915050565b600080604083850312156102d7576102d66100ec565b5b60006102e5858286016101a3565b92505060206102f685828601610201565b9150509250929050565b600064ffffffffff82169050919050565b61031a81610300565b82525050565b60006020820190506103356000830184610311565b9291505056fea264697066735822122015bd39e619875fa581831c6fe0c33d663d494eba61171e234a45aa8ec0c8df8664736f6c634300080a0033",
          "opcodes": "PUSH1 0x80 PUSH1 0x40 MSTORE CALLVALUE DUP1 ISZERO PUSH2 0x10 JUMPI PUSH1 0x0 DUP1 REVERT JUMPDEST POP PUSH2 0x371 DUP1 PUSH2 0x20 PUSH1 0x0 CODECOPY PUSH1 0x0 RETURN INVALID PUSH1 0x80 PUSH1 0x40 MSTORE CALLVALUE DUP1 ISZERO PUSH2 0x10 JUMPI PUSH1 0x0 DUP1 REVERT JUMPDEST POP PUSH1 0x4 CALLDATASIZE LT PUSH2 0x4C JUMPI PUSH1 0x0 CALLDATALOAD PUSH1 0xE0 SHR DUP1 PUSH4 0x193C8B8 EQ PUSH2 0x51 JUMPI DUP1 PUSH4 0x2A82E342 EQ PUSH2 0x6D JUMPI DUP1 PUSH4 0x5D1EA948 EQ PUSH2 0x89 JUMPI DUP1 PUSH4 0xBA3EBACB EQ PUSH2 0xA5 JUMPI JUMPDEST PUSH1 0x0 DUP1 REVERT JUMPDEST PUSH2 0x6B PUSH1 0x4 DUP1 CALLDATASIZE SUB DUP2 ADD SWAP1 PUSH2 0x66 SWAP2 SWAP1 PUSH2 0x266 JUMP JUMPDEST PUSH2 0xC3 JUMP JUMPDEST STOP JUMPDEST PUSH2 0x87 PUSH1 0x4 DUP1 CALLDATASIZE SUB DUP2 ADD SWAP1 PUSH2 0x82 SWAP2 SWAP1 PUSH2 0x293 JUMP JUMPDEST PUSH2 0xC6 JUMP JUMPDEST STOP JUMPDEST PUSH2 0xA3 PUSH1 0x4 DUP1 CALLDATASIZE SUB DUP2 ADD SWAP1 PUSH2 0x9E SWAP2 SWAP1 PUSH2 0x2C0 JUMP JUMPDEST PUSH2 0xC9 JUMP JUMPDEST STOP JUMPDEST PUSH2 0xAD PUSH2 0xCD JUMP JUMPDEST PUSH1 0x40 MLOAD PUSH2 0xBA SWAP2 SWAP1 PUSH2 0x320 JUMP JUMPDEST PUSH1 0x40 MLOAD DUP1 SWAP2 SUB SWAP1 RETURN JUMPDEST POP JUMP JUMPDEST POP JUMP JUMPDEST POP POP JUMP JUMPDEST PUSH1 0x0 DUP1 SLOAD SWAP1 PUSH2 0x100 EXP SWAP1 DIV PUSH5 0xFFFFFFFFFF AND DUP2 JUMP JUMPDEST PUSH1 0x0 PUSH1 0x40 MLOAD SWAP1 POP SWAP1 JUMP JUMPDEST PUSH1 0x0 DUP1 REVERT JUMPDEST PUSH1 0x0 DUP1 REVERT JUMPDEST PUSH1 0x0 PUSH1 0x1F NOT PUSH1 0x1F DUP4 ADD AND SWAP1 POP SWAP2 SWAP1 POP JUMP JUMPDEST PUSH32 0x4E487B7100000000000000000000000000000000000000000000000000000000 PUSH1 0x0 MSTORE PUSH1 0x41 PUSH1 0x4 MSTORE PUSH1 0x24 PUSH1 0x0 REVERT JUMPDEST PUSH2 0x13F DUP3 PUSH2 0xF6 JUMP JUMPDEST DUP2 ADD DUP2 DUP2 LT PUSH8 0xFFFFFFFFFFFFFFFF DUP3 GT OR ISZERO PUSH2 0x15E JUMPI PUSH2 0x15D PUSH2 0x107 JUMP JUMPDEST JUMPDEST DUP1 PUSH1 0x40 MSTORE POP POP POP JUMP JUMPDEST PUSH1 0x0 PUSH2 0x171 PUSH2 0xE2 JUMP JUMPDEST SWAP1 POP PUSH2 0x17D DUP3 DUP3 PUSH2 0x136 JUMP JUMPDEST SWAP2 SWAP1 POP JUMP JUMPDEST PUSH1 0x0 DUP2 SWAP1 POP SWAP2 SWAP1 POP JUMP JUMPDEST PUSH2 0x195 DUP2 PUSH2 0x182 JUMP JUMPDEST DUP2 EQ PUSH2 0x1A0 JUMPI PUSH1 0x0 DUP1 REVERT JUMPDEST POP JUMP JUMPDEST PUSH1 0x0 DUP2 CALLDATALOAD SWAP1 POP PUSH2 0x1B2 DUP2 PUSH2 0x18C JUMP JUMPDEST SWAP3 SWAP2 POP POP JUMP JUMPDEST PUSH1 0x0 PUSH20 0xFFFFFFFFFFFFFFFFFFFFFFFFFFFFFFFFFFFFFFFF DUP3 AND SWAP1 POP SWAP2 SWAP1 POP JUMP JUMPDEST PUSH1 0x0 PUSH2 0x1E3 DUP3 PUSH2 0x1B8 JUMP JUMPDEST SWAP1 POP SWAP2 SWAP1 POP JUMP JUMPDEST PUSH2 0x1F3 DUP2 PUSH2 0x1D8 JUMP JUMPDEST DUP2 EQ PUSH2 0x1FE JUMPI PUSH1 0x0 DUP1 REVERT JUMPDEST POP JUMP JUMPDEST PUSH1 0x0 DUP2 CALLDATALOAD SWAP1 POP PUSH2 0x210 DUP2 PUSH2 0x1EA JUMP JUMPDEST SWAP3 SWAP2 POP POP JUMP JUMPDEST PUSH1 0x0 PUSH1 0x40 DUP3 DUP5 SUB SLT ISZERO PUSH2 0x22C JUMPI PUSH2 0x22B PUSH2 0xF1 JUMP JUMPDEST JUMPDEST PUSH2 0x236 PUSH1 0x40 PUSH2 0x167 JUMP JUMPDEST SWAP1 POP PUSH1 0x0 PUSH2 0x246 DUP5 DUP3 DUP6 ADD PUSH2 0x1A3 JUMP JUMPDEST PUSH1 0x0 DUP4 ADD MSTORE POP PUSH1 0x20 PUSH2 0x25A DUP5 DUP3 DUP6 ADD PUSH2 0x201 JUMP JUMPDEST PUSH1 0x20 DUP4 ADD MSTORE POP SWAP3 SWAP2 POP POP JUMP JUMPDEST PUSH1 0x0 PUSH1 0x40 DUP3 DUP5 SUB SLT ISZERO PUSH2 0x27C JUMPI PUSH2 0x27B PUSH2 0xEC JUMP JUMPDEST JUMPDEST PUSH1 0x0 PUSH2 0x28A DUP5 DUP3 DUP6 ADD PUSH2 0x216 JUMP JUMPDEST SWAP2 POP POP SWAP3 SWAP2 POP POP JUMP JUMPDEST PUSH1 0x0 PUSH1 0x20 DUP3 DUP5 SUB SLT ISZERO PUSH2 0x2A9 JUMPI PUSH2 0x2A8 PUSH2 0xEC JUMP JUMPDEST JUMPDEST PUSH1 0x0 PUSH2 0x2B7 DUP5 DUP3 DUP6 ADD PUSH2 0x1A3 JUMP JUMPDEST SWAP2 POP POP SWAP3 SWAP2 POP POP JUMP JUMPDEST PUSH1 0x0 DUP1 PUSH1 0x40 DUP4 DUP6 SUB SLT ISZERO PUSH2 0x2D7 JUMPI PUSH2 0x2D6 PUSH2 0xEC JUMP JUMPDEST JUMPDEST PUSH1 0x0 PUSH2 0x2E5 DUP6 DUP3 DUP7 ADD PUSH2 0x1A3 JUMP JUMPDEST SWAP3 POP POP PUSH1 0x20 PUSH2 0x2F6 DUP6 DUP3 DUP7 ADD PUSH2 0x201 JUMP JUMPDEST SWAP2 POP POP SWAP3 POP SWAP3 SWAP1 POP JUMP JUMPDEST PUSH1 0x0 PUSH5 0xFFFFFFFFFF DUP3 AND SWAP1 POP SWAP2 SWAP1 POP JUMP JUMPDEST PUSH2 0x31A DUP2 PUSH2 0x300 JUMP JUMPDEST DUP3 MSTORE POP POP JUMP JUMPDEST PUSH1 0x0 PUSH1 0x20 DUP3 ADD SWAP1 POP PUSH2 0x335 PUSH1 0x0 DUP4 ADD DUP5 PUSH2 0x311 JUMP JUMPDEST SWAP3 SWAP2 POP POP JUMP INVALID LOG2 PUSH5 0x6970667358 0x22 SLT KECCAK256 ISZERO 0xBD CODECOPY 0xE6 NOT DUP8 0x5F 0xA5 DUP2 DUP4 SHR PUSH16 0xE0C33D663D494EBA61171E234A45AA8E 0xC0 0xC8 0xDF DUP7 PUSH5 0x736F6C6343 STOP ADDMOD EXP STOP CALLER "
        },
        "methodIdentifiers": {
          "avar()": "ba3ebacb",
          "baap(uint256,address)": "5d1ea948",
          "boop(uint256)": "2a82e342",
          "set((uint256,address))": "0193c8b8"
        }
      },
      "userdoc": {
        "errors": {
          "Doh(bool)": [
            {
              "notice": "Thrown when doh"
            }
          ]
        },
        "events": {
          "Transfer(uint256)": {
            "notice": "Emitted when transfer"
          }
        },
        "kind": "user",
        "methods": {
          "baap(uint256,address)": {
            "notice": "Baaps the yaps"
          },
          "boop(uint256)": {
            "notice": "Cool function bro"
          }
        },
        "notice": "Manages the bar",
        "version": 1
      }
    }
  }
}