{
  "contracts/ExampleContract.sol": {
    "ExampleContract": {
      "abi": [
        {
          "inputs": [
            {
              "internalType": "address",
              "name": "expected",
              "type": "address"
            },
            {
              "internalType": "address",
              "name": "actual",
              "type": "address"
            }
          ],
          "name": "RandomError",
          "type": "error"
        },
        {
          "anonymous": false,
          "inputs": [
            {
              "indexed": true,
              "internalType": "address",
              "name": "a",
              "type": "address"
            },
            {
              "indexed": false,
              "internalType": "uint256",
              "name": "b",
              "type": "uint256"
            }
          ],
          "name": "DoSomething",
          "type": "event"
        },
        {
          "inputs": [
            {
              "internalType": "uint256",
              "name": "num",
              "type": "uint256"
            }
          ],
          "name": "anotherThing",
          "outputs": [
            {
              "internalType": "uint256",
              "name": "",
              "type": "uint256"
            }
          ],
          "stateMutability": "pure",
          "type": "function"
        },
        {
          "inputs": [],
          "name": "boop",
          "outputs": [
            {
              "internalType": "address",
              "name": "",
              "type": "address"
            }
          ],
          "stateMutability": "view",
          "type": "function"
        },
        {
          "inputs": [
            {
              "internalType": "address",
              "name": "a",
              "type": "address"
            },
            {
              "internalType": "uint256",
              "name": "b",
              "type": "uint256"
            }
          ],
          "name": "doSomething",
          "outputs": [
            {
              "internalType": "uint256",
              "name": "foo",
              "type": "uint256"
            },
            {
              "internalType": "uint256",
              "name": "bar",
              "type": "uint256"
            }
          ],
          "stateMutability": "nonpayable",
          "type": "function"
        },
        {
          "inputs": [],
          "name": "libAddressManager",
          "outputs": [
            {
              "internalType": "address",
              "name": "",
              "type": "address"
            }
          ],
          "stateMutability": "view",
          "type": "function"
        },
        {
          "inputs": [],
          "name": "pay",
          "outputs": [],
          "stateMutability": "payable",
          "type": "function"
        }
      ],
      "devdoc": {
        "errors": {
          "RandomError(address,address)": [
            {
              "details": "More info about the error.",
              "params": {
                "actual": "Actual address",
                "expected": "Expected address"
              }
            }
          ]
        },
        "kind": "dev",
        "methods": {
          "anotherThing(uint256)": {
            "details": "More info about doing another thing when the function is called.",
            "params": {
              "num": "A random number"
            },
            "returns": {
              "_0": "A random variable"
            }
          },
          "doSomething(address,uint256)": {
            "details": "More info about the doSomething, and this even works when the explanation is on two lines.",
            "params": {
              "a": "Address to do something",
              "b": "Number to do something"
            },
            "returns": {
              "bar": "Second return variable",
              "foo": "First return variable"
            }
          }
        },
        "version": 1
      },
      "evm": {
        "bytecode": {
          "linkReferences": {},
          "object": "608060405234801561001057600080fd5b5061032b806100206000396000f3fe60806040526004361061004a5760003560e01c80631b9265b81461004f57806328a831d114610059578063299ca478146100845780637d803ad8146100af578063cfe49f1e146100ed575b600080fd5b61005761012a565b005b34801561006557600080fd5b5061006e61012c565b60405161007b91906101b3565b60405180910390f35b34801561009057600080fd5b50610099610131565b6040516100a691906101b3565b60405180910390f35b3480156100bb57600080fd5b506100d660048036038101906100d19190610235565b610155565b6040516100e4929190610284565b60405180910390f35b3480156100f957600080fd5b50610114600480360381019061010f91906102ad565b610167565b60405161012191906102da565b60405180910390f35b565b600090565b60008054906101000a900473ffffffffffffffffffffffffffffffffffffffff1681565b60008060046002915091509250929050565b600060059050919050565b600073ffffffffffffffffffffffffffffffffffffffff82169050919050565b600061019d82610172565b9050919050565b6101ad81610192565b82525050565b60006020820190506101c860008301846101a4565b92915050565b600080fd5b6101dc81610192565b81146101e757600080fd5b50565b6000813590506101f9816101d3565b92915050565b6000819050919050565b610212816101ff565b811461021d57600080fd5b50565b60008135905061022f81610209565b92915050565b6000806040838503121561024c5761024b6101ce565b5b600061025a858286016101ea565b925050602061026b85828601610220565b9150509250929050565b61027e816101ff565b82525050565b60006040820190506102996000830185610275565b6102a66020830184610275565b9392505050565b6000602082840312156102c3576102c26101ce565b5b60006102d184828501610220565b91505092915050565b60006020820190506102ef6000830184610275565b9291505056fea264697066735822122033f091eb15a2fe11d9d1bd6c35a328ea16bdfaf6c5196badd6e65c0a5207638564736f6c634300080a0033",
          "opcodes": "PUSH1 0x80 PUSH1 0x40 MSTORE CALLVALUE DUP1 ISZERO PUSH2 0x10 JUMPI PUSH1 0x0 DUP1 REVERT JUMPDEST POP PUSH2 0x32B DUP1 PUSH2 0x20 PUSH1 0x0 CODECOPY PUSH1 0x0 RETURN INVALID PUSH1 0x80 PUSH1 0x40 MSTORE PUSH1 0x4 CALLDATASIZE LT PUSH2 0x4A JUMPI PUSH1 0x0 CALLDATALOAD PUSH1 0xE0 SHR DUP1 PUSH4 0x1B9265B8 EQ PUSH2 0x4F JUMPI DUP1 PUSH4 0x28A831D1 EQ PUSH2 0x59 JUMPI DUP1 PUSH4 0x299CA478 EQ PUSH2 0x84 JUMPI DUP1 PUSH4 0x7D803AD8 EQ PUSH2 0xAF JUMPI DUP1 PUSH4 0xCFE49F1E EQ PUSH2 0xED JUMPI JUMPDEST PUSH1 0x0 DUP1 REVERT JUMPDEST PUSH2 0x57 PUSH2 0x12A JUMP JUMPDEST STOP JUMPDEST CALLVALUE DUP1 ISZERO PUSH2 0x65 JUMPI PUSH1 0x0 DUP1 REVERT JUMPDEST POP PUSH2 0x6E PUSH2 0x12C JUMP JUMPDEST PUSH1 0x40 MLOAD PUSH2 0x7B SWAP2 SWAP1 PUSH2 0x1B3 JUMP JUMPDEST PUSH1 0x40 MLOAD DUP1 SWAP2 SUB SWAP1 RETURN JUMPDEST CALLVALUE DUP1 ISZERO PUSH2 0x90 JUMPI PUSH1 0x0 DUP1 REVERT JUMPDEST POP PUSH2 0x99 PUSH2 0x131 JUMP JUMPDEST PUSH1 0x40 MLOAD PUSH2 0xA6 SWAP2 SWAP1 PUSH2 0x1B3 JUMP JUMPDEST PUSH1 0x40 MLOAD DUP1 SWAP2 SUB SWAP1 RETURN JUMPDEST CALLVALUE DUP1 ISZERO PUSH2 0xBB JUMPI PUSH1 0x0 DUP1 REVERT JUMPDEST POP PUSH2 0xD6 PUSH1 0x4 DUP1 CALLDATASIZE SUB DUP2 ADD SWAP1 PUSH2 0xD1 SWAP2 SWAP1 PUSH2 0x235 JUMP JUMPDEST PUSH2 0x155 JUMP JUMPDEST PUSH1 0x40 MLOAD PUSH2 0xE4 SWAP3 SWAP2 SWAP1 PUSH2 0x284 JUMP JUMPDEST PUSH1 0x40 MLOAD DUP1 SWAP2 SUB SWAP1 RETURN JUMPDEST CALLVALUE DUP1 ISZERO PUSH2 0xF9 JUMPI PUSH1 0x0 DUP1 REVERT JUMPDEST POP PUSH2 0x114 PUSH1 0x4 DUP1 CALLDATASIZE SUB DUP2 ADD SWAP1 PUSH2 0x10F SWAP2 SWAP1 PUSH2 0x2AD JUMP JUMPDEST PUSH2 0x167 JUMP JUMPDEST PUSH1 0x40 MLOAD PUSH2 0x121 SWAP2 SWAP1 PUSH2 0x2DA JUMP JUMPDEST PUSH1 0x40 MLOAD DUP1 SWAP2 SUB SWAP1 RETURN JUMPDEST JUMP JUMPDEST PUSH1 0x0 SWAP1 JUMP JUMPDEST PUSH1 0x0 DUP1 SLOAD SWAP1 PUSH2 0x100 EXP SWAP1 DIV PUSH20 0xFFFFFFFFFFFFFFFFFFFFFFFFFFFFFFFFFFFFFFFF AND DUP2 JUMP JUMPDEST PUSH1 0x0 DUP1 PUSH1 0x4 PUSH1 0x2 SWAP2 POP SWAP2 POP SWAP3 POP SWAP3 SWAP1 POP JUMP JUMPDEST PUSH1 0x0 PUSH1 0x5 SWAP1 POP SWAP2 SWAP1 POP JUMP JUMPDEST PUSH1 0x0 PUSH20 0xFFFFFFFFFFFFFFFFFFFFFFFFFFFFFFFFFFFFFFFF DUP3 AND SWAP1 POP SWAP2 SWAP1 POP JUMP JUMPDEST PUSH1 0x0 PUSH2 0x19D DUP3 PUSH2 0x172 JUMP JUMPDEST SWAP1 POP SWAP2 SWAP1 POP JUMP JUMPDEST PUSH2 0x1AD DUP2 PUSH2 0x192 JUMP JUMPDEST DUP3 MSTORE POP POP JUMP JUMPDEST PUSH1 0x0 PUSH1 0x20 DUP3 ADD SWAP1 POP PUSH2 0x1C8 PUSH1 0x0 DUP4 ADD DUP5 PUSH2 0x1A4 JUMP JUMPDEST SWAP3 SWAP2 POP POP JUMP JUMPDEST PUSH1 0x0 DUP1 REVERT JUMPDEST PUSH2 0x1DC DUP2 PUSH2 0x192 JUMP JUMPDEST DUP2 EQ PUSH2 0x1E7 JUMPI PUSH1 0x0 DUP1 REVERT JUMPDEST POP JUMP JUMPDEST PUSH1 0x0 DUP2 CALLDATALOAD SWAP1 POP PUSH2 0x1F9 DUP2 PUSH2 0x1D3 JUMP JUMPDEST SWAP3 SWAP2 POP POP JUMP JUMPDEST PUSH1 0x0 DUP2 SWAP1 POP SWAP2 SWAP1 POP JUMP JUMPDEST PUSH2 0x212 DUP2 PUSH2 0x1FF JUMP JUMPDEST DUP2 EQ PUSH2 0x21D JUMPI PUSH1 0x0 DUP1 REVERT JUMPDEST POP JUMP JUMPDEST PUSH1 0x0 DUP2 CALLDATALOAD SWAP1 POP PUSH2 0x22F DUP2 PUSH2 0x209 JUMP JUMPDEST SWAP3 SWAP2 POP POP JUMP JUMPDEST PUSH1 0x0 DUP1 PUSH1 0x40 DUP4 DUP6 SUB SLT ISZERO PUSH2 0x24C JUMPI PUSH2 0x24B PUSH2 0x1CE JUMP JUMPDEST JUMPDEST PUSH1 0x0 PUSH2 0x25A DUP6 DUP3 DUP7 ADD PUSH2 0x1EA JUMP JUMPDEST SWAP3 POP POP PUSH1 0x20 PUSH2 0x26B DUP6 DUP3 DUP7 ADD PUSH2 0x220 JUMP JUMPDEST SWAP2 POP POP SWAP3 POP SWAP3 SWAP1 POP JUMP JUMPDEST PUSH2 0x27E DUP2 PUSH2 0x1FF JUMP JUMPDEST DUP3 MSTORE POP POP JUMP JUMPDEST PUSH1 0x0 PUSH1 0x40 DUP3 ADD SWAP1 POP PUSH2 0x299 PUSH1 0x0 DUP4 ADD DUP6 PUSH2 0x275 JUMP JUMPDEST PUSH2 0x2A6 PUSH1 0x20 DUP4 ADD DUP5 PUSH2 0x275 JUMP JUMPDEST SWAP4 SWAP3 POP POP POP JUMP JUMPDEST PUSH1 0x0 PUSH1 0x20 DUP3 DUP5 SUB SLT ISZERO PUSH2 0x2C3 JUMPI PUSH2 0x2C2 PUSH2 0x1CE JUMP JUMPDEST JUMPDEST PUSH1 0x0 PUSH2 0x2D1 DUP5 DUP3 DUP6 ADD PUSH2 0x220 JUMP JUMPDEST SWAP2 POP POP SWAP3 SWAP2 POP POP JUMP JUMPDEST PUSH1 0x0 PUSH1 0x20 DUP3 ADD SWAP1 POP PUSH2 0x2EF PUSH1 0x0 DUP4 ADD DUP5 PUSH2 0x275 JUMP JUMPDEST SWAP3 SWAP2 POP POP JUMP INVALID LOG2 PUSH5 0x6970667358 0x22 SLT KECCAK256 CALLER CREATE SWAP2 0xEB ISZERO LOG2 INVALID GT 0xD9 0xD1 0xBD PUSH13 0x35A328EA16BDFAF6C5196BADD6 0xE6 0x5C EXP MSTORE SMOD PUSH4 0x8564736F PUSH13 0x634300080A0033000000000000 "
        },
        "methodIdentifiers": {
          "anotherThing(uint256)": "cfe49f1e",
          "boop()": "28a831d1",
          "doSomething(address,uint256)": "7d803ad8",
          "libAddressManager()": "299ca478",
          "pay()": "1b9265b8"
        }
      },
      "userdoc": {
        "errors": {
          "RandomError(address,address)": [
            {
              "notice": "Thrown when an error happens."
            }
          ]
        },
        "events": {
          "DoSomething(address,uint256)": {
            "notice": "Emitted when the function doSomething is called."
          }
        },
        "kind": "user",
        "methods": {
          "anotherThing(uint256)": {
            "notice": "Does another thing when the function is called."
          },
          "boop()": {
            "notice": "Poorly documented function starting with weird spaces."
          },
          "doSomething(address,uint256)": {
            "notice": "Does something when this function is called."
          },
          "pay()": {
            "notice": "A bad documented payable function."
          }
        },
        "version": 1
      }
    }
  }
}