{
  "_format": "hh-sol-artifact-1",
  "contractName": "Bar",
  "sourceName": "contracts/Bar.sol",
  "abi": [
    {
      "inputs": [
        {
          "internalType": "bool",
          "name": "yay",
          "type": "bool"
        }
      ],
      "name": "Doh",
      "type": "error"
    },
    {
      "anonymous": false,
      "inputs": [
        {
          "indexed": true,
          "internalType": "address",
          "name": "previousOwner",
          "type": "address"
        },
        {
          "indexed": true,
          "internalType": "address",
          "name": "newOwner",
          "type": "address"
        }
      ],
      "name": "OwnershipTransferred",
      "type": "event"
    },
    {
      "anonymous": false,
      "inputs": [
        {
          "indexed": false,
          "internalType": "uint256",
          "name": "foo",
          "type": "uint256"
        }
      ],
      "name": "Transfer",
      "type": "event"
    },
    {
      "inputs": [
        {
          "internalType": "uint256",
          "name": "bar1",
          "type": "uint256"
        }
      ],
      "name": "baap",
      "outputs": [],
      "stateMutability": "nonpayable",
      "type": "function"
    },
    {
      "inputs": [
        {
          "internalType": "uint256",
          "name": "bar",
          "type": "uint256"
        },
        {
          "internalType": "address",
          "name": "aar",
          "type": "address"
        }
      ],
      "name": "baap",
      "outputs": [],
      "stateMutability": "nonpayable",
      "type": "function"
    },
    {
      "inputs": [
        {
          "internalType": "uint256",
          "name": "bar",
          "type": "uint256"
        }
      ],
      "name": "boop",
      "outputs": [],
      "stateMutability": "nonpayable",
      "type": "function"
    },
    {
      "inputs": [],
      "name": "buyerAddress",
      "outputs": [
        {
          "internalType": "uint40",
          "name": "",
          "type": "uint40"
        }
      ],
      "stateMutability": "view",
      "type": "function"
    },
    {
      "inputs": [
        {
          "internalType": "address",
          "name": "",
          "type": "address"
        }
      ],
      "name": "buyerAmounts",
      "outputs": [
        {
          "internalType": "uint256",
          "name": "",
          "type": "uint256"
        }
      ],
      "stateMutability": "view",
      "type": "function"
    },
    {
      "inputs": [],
      "name": "owner",
      "outputs": [
        {
          "internalType": "address",
          "name": "",
          "type": "address"
        }
      ],
      "stateMutability": "view",
      "type": "function"
    },
    {
      "inputs": [],
      "name": "renounceOwnership",
      "outputs": [],
      "stateMutability": "nonpayable",
      "type": "function"
    },
    {
      "inputs": [
        {
          "components": [
            {
              "internalType": "uint256",
              "name": "paramA",
              "type": "uint256"
            },
            {
              "internalType": "address",
              "name": "paramB",
              "type": "address"
            }
          ],
          "internalType": "struct IBar.T",
          "name": "t",
          "type": "tuple"
        }
      ],
      "name": "set",
      "outputs": [],
      "stateMutability": "nonpayable",
      "type": "function"
    },
    {
      "inputs": [
        {
          "internalType": "address",
          "name": "newOwner",
          "type": "address"
        }
      ],
      "name": "transferOwnership",
      "outputs": [],
      "stateMutability": "nonpayable",
      "type": "function"
    }
  ],
  "bytecode": "0x608060405234801561001057600080fd5b5061002d61002261003260201b60201c565b61003a60201b60201c565b6100fe565b600033905090565b60008060009054906101000a900473ffffffffffffffffffffffffffffffffffffffff169050816000806101000a81548173ffffffffffffffffffffffffffffffffffffffff021916908373ffffffffffffffffffffffffffffffffffffffff1602179055508173ffffffffffffffffffffffffffffffffffffffff168173ffffffffffffffffffffffffffffffffffffffff167f8be0079c531659141344cd1fd0a4f28419497f9722a3daafe3b4186f6b6457e060405160405180910390a35050565b61086a8061010d6000396000f3fe608060405234801561001057600080fd5b50600436106100935760003560e01c80635d1ea948116100665780635d1ea9481461010a578063715018a6146101265780638da5cb5b14610130578063d607aba51461014e578063f2fde38b1461017e57610093565b80630193c8b8146100985780632a82e342146100b457806330421eaf146100d057806344834aca146100ec575b600080fd5b6100b260048036038101906100ad91906105cf565b61019a565b005b6100ce60048036038101906100c991906105fc565b61019d565b005b6100ea60048036038101906100e591906105fc565b6101a0565b005b6100f46101a3565b6040516101019190610649565b60405180910390f35b610124600480360381019061011f9190610664565b6101ba565b005b61012e6101be565b005b610138610246565b60405161014591906106b3565b60405180910390f35b610168600480360381019061016391906106ce565b61026f565b604051610175919061070a565b60405180910390f35b610198600480360381019061019391906106ce565b610287565b005b50565b50565b50565b600060149054906101000a900464ffffffffff1681565b5050565b6101c661037f565b73ffffffffffffffffffffffffffffffffffffffff166101e4610246565b73ffffffffffffffffffffffffffffffffffffffff161461023a576040517f08c379a000000000000000000000000000000000000000000000000000000000815260040161023190610782565b60405180910390fd5b6102446000610387565b565b60008060009054906101000a900473ffffffffffffffffffffffffffffffffffffffff16905090565b60016020528060005260406000206000915090505481565b61028f61037f565b73ffffffffffffffffffffffffffffffffffffffff166102ad610246565b73ffffffffffffffffffffffffffffffffffffffff1614610303576040517f08c379a00000000000000000000000000000000000000000000000000000000081526004016102fa90610782565b60405180910390fd5b600073ffffffffffffffffffffffffffffffffffffffff168173ffffffffffffffffffffffffffffffffffffffff161415610373576040517f08c379a000000000000000000000000000000000000000000000000000000000815260040161036a90610814565b60405180910390fd5b61037c81610387565b50565b600033905090565b60008060009054906101000a900473ffffffffffffffffffffffffffffffffffffffff169050816000806101000a81548173ffffffffffffffffffffffffffffffffffffffff021916908373ffffffffffffffffffffffffffffffffffffffff1602179055508173ffffffffffffffffffffffffffffffffffffffff168173ffffffffffffffffffffffffffffffffffffffff167f8be0079c531659141344cd1fd0a4f28419497f9722a3daafe3b4186f6b6457e060405160405180910390a35050565b6000604051905090565b600080fd5b600080fd5b6000601f19601f8301169050919050565b7f4e487b7100000000000000000000000000000000000000000000000000000000600052604160045260246000fd5b6104a88261045f565b810181811067ffffffffffffffff821117156104c7576104c6610470565b5b80604052505050565b60006104da61044b565b90506104e6828261049f565b919050565b6000819050919050565b6104fe816104eb565b811461050957600080fd5b50565b60008135905061051b816104f5565b92915050565b600073ffffffffffffffffffffffffffffffffffffffff82169050919050565b600061054c82610521565b9050919050565b61055c81610541565b811461056757600080fd5b50565b60008135905061057981610553565b92915050565b6000604082840312156105955761059461045a565b5b61059f60406104d0565b905060006105af8482850161050c565b60008301525060206105c38482850161056a565b60208301525092915050565b6000604082840312156105e5576105e4610455565b5b60006105f38482850161057f565b91505092915050565b60006020828403121561061257610611610455565b5b60006106208482850161050c565b91505092915050565b600064ffffffffff82169050919050565b61064381610629565b82525050565b600060208201905061065e600083018461063a565b92915050565b6000806040838503121561067b5761067a610455565b5b60006106898582860161050c565b925050602061069a8582860161056a565b9150509250929050565b6106ad81610541565b82525050565b60006020820190506106c860008301846106a4565b92915050565b6000602082840312156106e4576106e3610455565b5b60006106f28482850161056a565b91505092915050565b610704816104eb565b82525050565b600060208201905061071f60008301846106fb565b92915050565b600082825260208201905092915050565b7f4f776e61626c653a2063616c6c6572206973206e6f7420746865206f776e6572600082015250565b600061076c602083610725565b915061077782610736565b602082019050919050565b6000602082019050818103600083015261079b8161075f565b9050919050565b7f4f776e61626c653a206e6577206f776e657220697320746865207a65726f206160008201527f6464726573730000000000000000000000000000000000000000000000000000602082015250565b60006107fe602683610725565b9150610809826107a2565b604082019050919050565b6000602082019050818103600083015261082d816107f1565b905091905056fea26469706673582212203d61bc889955bfd229c03f9ab722b86d7383d38d76c3ab99b477c49c6ea845ca64736f6c634300080a0033",
  "linkReferences": {},
  "deployedLinkReferences": {}
}