{
  "_format": "hh-sol-artifact-1",
  "contractName": "Bar",
  "sourceName": "contracts/Bar.sol",
  "abi": [
    {
      "inputs": [
        {
          "internalType": "bool",
          "name": "yay",
          "type": "bool"
        }
      ],
      "name": "Doh",
      "type": "error"
    },
    {
      "anonymous": false,
      "inputs": [
        {
          "indexed": true,
          "internalType": "address",
          "name": "previousOwner",
          "type": "address"
        },
        {
          "indexed": true,
          "internalType": "address",
          "name": "newOwner",
          "type": "address"
        }
      ],
      "name": "OwnershipTransferred",
      "type": "event"
    },
    {
      "anonymous": false,
      "inputs": [
        {
          "indexed": false,
          "internalType": "uint256",
          "name": "foo",
          "type": "uint256"
        }
      ],
      "name": "Transfer",
      "type": "event"
    },
    {
      "inputs": [],
      "name": "avar",
      "outputs": [
        {
          "internalType": "uint40",
          "name": "",
          "type": "uint40"
        }
      ],
      "stateMutability": "view",
      "type": "function"
    },
    {
      "inputs": [
        {
          "internalType": "uint256",
          "name": "bar",
          "type": "uint256"
        },
        {
          "internalType": "address",
          "name": "aar",
          "type": "address"
        }
      ],
      "name": "baap",
      "outputs": [],
      "stateMutability": "nonpayable",
      "type": "function"
    },
    {
      "inputs": [
        {
          "internalType": "uint256",
          "name": "bar",
          "type": "uint256"
        }
      ],
      "name": "boop",
      "outputs": [],
      "stateMutability": "nonpayable",
      "type": "function"
    },
    {
      "inputs": [],
      "name": "owner",
      "outputs": [
        {
          "internalType": "address",
          "name": "",
          "type": "address"
        }
      ],
      "stateMutability": "view",
      "type": "function"
    },
    {
      "inputs": [],
      "name": "renounceOwnership",
      "outputs": [],
      "stateMutability": "nonpayable",
      "type": "function"
    },
    {
      "inputs": [
        {
          "components": [
            {
              "internalType": "uint256",
              "name": "paramA",
              "type": "uint256"
            },
            {
              "internalType": "address",
              "name": "paramB",
              "type": "address"
            }
          ],
          "internalType": "struct IBar.T",
          "name": "t",
          "type": "tuple"
        }
      ],
      "name": "set",
      "outputs": [],
      "stateMutability": "nonpayable",
      "type": "function"
    },
    {
      "inputs": [
        {
          "internalType": "address",
          "name": "newOwner",
          "type": "address"
        }
      ],
      "name": "transferOwnership",
      "outputs": [],
      "stateMutability": "nonpayable",
      "type": "function"
    }
  ],
  "bytecode": "0x608060405234801561001057600080fd5b5061002d61002261003260201b60201c565b61003a60201b60201c565b6100fe565b600033905090565b60008060009054906101000a900473ffffffffffffffffffffffffffffffffffffffff169050816000806101000a81548173ffffffffffffffffffffffffffffffffffffffff021916908373ffffffffffffffffffffffffffffffffffffffff1602179055508173ffffffffffffffffffffffffffffffffffffffff168173ffffffffffffffffffffffffffffffffffffffff167f8be0079c531659141344cd1fd0a4f28419497f9722a3daafe3b4186f6b6457e060405160405180910390a35050565b6107c38061010d6000396000f3fe608060405234801561001057600080fd5b506004361061007d5760003560e01c8063715018a61161005b578063715018a6146100d65780638da5cb5b146100e0578063ba3ebacb146100fe578063f2fde38b1461011c5761007d565b80630193c8b8146100825780632a82e3421461009e5780635d1ea948146100ba575b600080fd5b61009c60048036038101906100979190610552565b610138565b005b6100b860048036038101906100b3919061057f565b61013b565b005b6100d460048036038101906100cf91906105ac565b61013e565b005b6100de610142565b005b6100e86101ca565b6040516100f591906105fb565b60405180910390f35b6101066101f3565b6040516101139190610636565b60405180910390f35b61013660048036038101906101319190610651565b61020a565b005b50565b50565b5050565b61014a610302565b73ffffffffffffffffffffffffffffffffffffffff166101686101ca565b73ffffffffffffffffffffffffffffffffffffffff16146101be576040517f08c379a00000000000000000000000000000000000000000000000000000000081526004016101b5906106db565b60405180910390fd5b6101c8600061030a565b565b60008060009054906101000a900473ffffffffffffffffffffffffffffffffffffffff16905090565b600060149054906101000a900464ffffffffff1681565b610212610302565b73ffffffffffffffffffffffffffffffffffffffff166102306101ca565b73ffffffffffffffffffffffffffffffffffffffff1614610286576040517f08c379a000000000000000000000000000000000000000000000000000000000815260040161027d906106db565b60405180910390fd5b600073ffffffffffffffffffffffffffffffffffffffff168173ffffffffffffffffffffffffffffffffffffffff1614156102f6576040517f08c379a00000000000000000000000000000000000000000000000000000000081526004016102ed9061076d565b60405180910390fd5b6102ff8161030a565b50565b600033905090565b60008060009054906101000a900473ffffffffffffffffffffffffffffffffffffffff169050816000806101000a81548173ffffffffffffffffffffffffffffffffffffffff021916908373ffffffffffffffffffffffffffffffffffffffff1602179055508173ffffffffffffffffffffffffffffffffffffffff168173ffffffffffffffffffffffffffffffffffffffff167f8be0079c531659141344cd1fd0a4f28419497f9722a3daafe3b4186f6b6457e060405160405180910390a35050565b6000604051905090565b600080fd5b600080fd5b6000601f19601f8301169050919050565b7f4e487b7100000000000000000000000000000000000000000000000000000000600052604160045260246000fd5b61042b826103e2565b810181811067ffffffffffffffff8211171561044a576104496103f3565b5b80604052505050565b600061045d6103ce565b90506104698282610422565b919050565b6000819050919050565b6104818161046e565b811461048c57600080fd5b50565b60008135905061049e81610478565b92915050565b600073ffffffffffffffffffffffffffffffffffffffff82169050919050565b60006104cf826104a4565b9050919050565b6104df816104c4565b81146104ea57600080fd5b50565b6000813590506104fc816104d6565b92915050565b600060408284031215610518576105176103dd565b5b6105226040610453565b905060006105328482850161048f565b6000830152506020610546848285016104ed565b60208301525092915050565b600060408284031215610568576105676103d8565b5b600061057684828501610502565b91505092915050565b600060208284031215610595576105946103d8565b5b60006105a38482850161048f565b91505092915050565b600080604083850312156105c3576105c26103d8565b5b60006105d18582860161048f565b92505060206105e2858286016104ed565b9150509250929050565b6105f5816104c4565b82525050565b600060208201905061061060008301846105ec565b92915050565b600064ffffffffff82169050919050565b61063081610616565b82525050565b600060208201905061064b6000830184610627565b92915050565b600060208284031215610667576106666103d8565b5b6000610675848285016104ed565b91505092915050565b600082825260208201905092915050565b7f4f776e61626c653a2063616c6c6572206973206e6f7420746865206f776e6572600082015250565b60006106c560208361067e565b91506106d08261068f565b602082019050919050565b600060208201905081810360008301526106f4816106b8565b9050919050565b7f4f776e61626c653a206e6577206f776e657220697320746865207a65726f206160008201527f6464726573730000000000000000000000000000000000000000000000000000602082015250565b600061075760268361067e565b9150610762826106fb565b604082019050919050565b600060208201905081810360008301526107868161074a565b905091905056fea26469706673582212205cd76c3b3ed300bfd865b8c6162fead92d9a50f1a22235c836e94e81c0deaf7264736f6c634300080a0033",
  "linkReferences": {},
  "deployedLinkReferences": {}
}