{
  "_format": "hh-sol-artifact-1",
  "contractName": "Bar",
  "sourceName": "contracts/Bar.sol",
  "abi": [
    {
      "inputs": [
        {
          "internalType": "bool",
          "name": "yay",
          "type": "bool"
        }
      ],
      "name": "Doh",
      "type": "error"
    },
    {
      "anonymous": false,
      "inputs": [
        {
          "indexed": false,
          "internalType": "uint256",
          "name": "foo",
          "type": "uint256"
        }
      ],
      "name": "Transfer",
      "type": "event"
    },
    {
      "inputs": [
        {
          "internalType": "uint256",
          "name": "bar",
          "type": "uint256"
        },
        {
          "internalType": "address",
          "name": "aar",
          "type": "address"
        }
      ],
      "name": "baap",
      "outputs": [],
      "stateMutability": "nonpayable",
      "type": "function"
    },
    {
      "inputs": [
        {
          "internalType": "uint256",
          "name": "bar",
          "type": "uint256"
        }
      ],
      "name": "boop",
      "outputs": [],
      "stateMutability": "nonpayable",
      "type": "function"
    },
    {
      "inputs": [
        {
          "components": [
            {
              "internalType": "uint256",
              "name": "paramA",
              "type": "uint256"
            },
            {
              "internalType": "address",
              "name": "paramB",
              "type": "address"
            }
          ],
          "internalType": "struct IBar.T",
          "name": "t",
          "type": "tuple"
        }
      ],
      "name": "set",
      "outputs": [],
      "stateMutability": "nonpayable",
      "type": "function"
    }
  ],
  "bytecode": "0x608060405234801561001057600080fd5b506102f8806100206000396000f3fe608060405234801561001057600080fd5b50600436106100415760003560e01c80630193c8b8146100465780632a82e342146100625780635d1ea9481461007e575b600080fd5b610060600480360381019061005b9190610228565b61009a565b005b61007c60048036038101906100779190610255565b61009d565b005b61009860048036038101906100939190610282565b6100a0565b005b50565b50565b5050565b6000604051905090565b600080fd5b600080fd5b6000601f19601f8301169050919050565b7f4e487b7100000000000000000000000000000000000000000000000000000000600052604160045260246000fd5b610101826100b8565b810181811067ffffffffffffffff821117156101205761011f6100c9565b5b80604052505050565b60006101336100a4565b905061013f82826100f8565b919050565b6000819050919050565b61015781610144565b811461016257600080fd5b50565b6000813590506101748161014e565b92915050565b600073ffffffffffffffffffffffffffffffffffffffff82169050919050565b60006101a58261017a565b9050919050565b6101b58161019a565b81146101c057600080fd5b50565b6000813590506101d2816101ac565b92915050565b6000604082840312156101ee576101ed6100b3565b5b6101f86040610129565b9050600061020884828501610165565b600083015250602061021c848285016101c3565b60208301525092915050565b60006040828403121561023e5761023d6100ae565b5b600061024c848285016101d8565b91505092915050565b60006020828403121561026b5761026a6100ae565b5b600061027984828501610165565b91505092915050565b60008060408385031215610299576102986100ae565b5b60006102a785828601610165565b92505060206102b8858286016101c3565b915050925092905056fea2646970667358221220398cc6f6c75e8ff597a02d4e7f55213d840fb300c5d186418f248fb131d5c70e64736f6c634300080a0033",
  "linkReferences": {},
  "deployedLinkReferences": {}
}