{
  "_format": "hh-sol-artifact-1",
  "contractName": "Bar",
  "sourceName": "contracts/Bar.sol",
  "abi": [
    {
      "inputs": [
        {
          "internalType": "bool",
          "name": "yay",
          "type": "bool"
        }
      ],
      "name": "Doh",
      "type": "error"
    },
    {
      "anonymous": false,
      "inputs": [
        {
          "indexed": true,
          "internalType": "address",
          "name": "previousOwner",
          "type": "address"
        },
        {
          "indexed": true,
          "internalType": "address",
          "name": "newOwner",
          "type": "address"
        }
      ],
      "name": "OwnershipTransferred",
      "type": "event"
    },
    {
      "anonymous": false,
      "inputs": [
        {
          "indexed": false,
          "internalType": "uint256",
          "name": "foo",
          "type": "uint256"
        }
      ],
      "name": "Transfer",
      "type": "event"
    },
    {
      "inputs": [],
      "name": "avar",
      "outputs": [
        {
          "internalType": "uint40",
          "name": "",
          "type": "uint40"
        }
      ],
      "stateMutability": "view",
      "type": "function"
    },
    {
      "inputs": [
        {
          "internalType": "uint256",
          "name": "bar1",
          "type": "uint256"
        }
      ],
      "name": "baap",
      "outputs": [],
      "stateMutability": "nonpayable",
      "type": "function"
    },
    {
      "inputs": [
        {
          "internalType": "uint256",
          "name": "bar",
          "type": "uint256"
        },
        {
          "internalType": "address",
          "name": "aar",
          "type": "address"
        }
      ],
      "name": "baap",
      "outputs": [],
      "stateMutability": "nonpayable",
      "type": "function"
    },
    {
      "inputs": [
        {
          "internalType": "uint256",
          "name": "bar",
          "type": "uint256"
        }
      ],
      "name": "boop",
      "outputs": [],
      "stateMutability": "nonpayable",
      "type": "function"
    },
    {
      "inputs": [],
      "name": "owner",
      "outputs": [
        {
          "internalType": "address",
          "name": "",
          "type": "address"
        }
      ],
      "stateMutability": "view",
      "type": "function"
    },
    {
      "inputs": [],
      "name": "renounceOwnership",
      "outputs": [],
      "stateMutability": "nonpayable",
      "type": "function"
    },
    {
      "inputs": [
        {
          "components": [
            {
              "internalType": "uint256",
              "name": "paramA",
              "type": "uint256"
            },
            {
              "internalType": "address",
              "name": "paramB",
              "type": "address"
            }
          ],
          "internalType": "struct IBar.T",
          "name": "t",
          "type": "tuple"
        }
      ],
      "name": "set",
      "outputs": [],
      "stateMutability": "nonpayable",
      "type": "function"
    },
    {
      "inputs": [
        {
          "internalType": "address",
          "name": "newOwner",
          "type": "address"
        }
      ],
      "name": "transferOwnership",
      "outputs": [],
      "stateMutability": "nonpayable",
      "type": "function"
    }
  ],
  "bytecode": "0x608060405234801561001057600080fd5b5061002d61002261003260201b60201c565b61003a60201b60201c565b6100fe565b600033905090565b60008060009054906101000a900473ffffffffffffffffffffffffffffffffffffffff169050816000806101000a81548173ffffffffffffffffffffffffffffffffffffffff021916908373ffffffffffffffffffffffffffffffffffffffff1602179055508173ffffffffffffffffffffffffffffffffffffffff168173ffffffffffffffffffffffffffffffffffffffff167f8be0079c531659141344cd1fd0a4f28419497f9722a3daafe3b4186f6b6457e060405160405180910390a35050565b6107ed8061010d6000396000f3fe608060405234801561001057600080fd5b50600436106100885760003560e01c8063715018a61161005b578063715018a6146100fd5780638da5cb5b14610107578063ba3ebacb14610125578063f2fde38b1461014357610088565b80630193c8b81461008d5780632a82e342146100a957806330421eaf146100c55780635d1ea948146100e1575b600080fd5b6100a760048036038101906100a2919061057c565b61015f565b005b6100c360048036038101906100be91906105a9565b610162565b005b6100df60048036038101906100da91906105a9565b610165565b005b6100fb60048036038101906100f691906105d6565b610168565b005b61010561016c565b005b61010f6101f4565b60405161011c9190610625565b60405180910390f35b61012d61021d565b60405161013a9190610660565b60405180910390f35b61015d6004803603810190610158919061067b565b610234565b005b50565b50565b50565b5050565b61017461032c565b73ffffffffffffffffffffffffffffffffffffffff166101926101f4565b73ffffffffffffffffffffffffffffffffffffffff16146101e8576040517f08c379a00000000000000000000000000000000000000000000000000000000081526004016101df90610705565b60405180910390fd5b6101f26000610334565b565b60008060009054906101000a900473ffffffffffffffffffffffffffffffffffffffff16905090565b600060149054906101000a900464ffffffffff1681565b61023c61032c565b73ffffffffffffffffffffffffffffffffffffffff1661025a6101f4565b73ffffffffffffffffffffffffffffffffffffffff16146102b0576040517f08c379a00000000000000000000000000000000000000000000000000000000081526004016102a790610705565b60405180910390fd5b600073ffffffffffffffffffffffffffffffffffffffff168173ffffffffffffffffffffffffffffffffffffffff161415610320576040517f08c379a000000000000000000000000000000000000000000000000000000000815260040161031790610797565b60405180910390fd5b61032981610334565b50565b600033905090565b60008060009054906101000a900473ffffffffffffffffffffffffffffffffffffffff169050816000806101000a81548173ffffffffffffffffffffffffffffffffffffffff021916908373ffffffffffffffffffffffffffffffffffffffff1602179055508173ffffffffffffffffffffffffffffffffffffffff168173ffffffffffffffffffffffffffffffffffffffff167f8be0079c531659141344cd1fd0a4f28419497f9722a3daafe3b4186f6b6457e060405160405180910390a35050565b6000604051905090565b600080fd5b600080fd5b6000601f19601f8301169050919050565b7f4e487b7100000000000000000000000000000000000000000000000000000000600052604160045260246000fd5b6104558261040c565b810181811067ffffffffffffffff821117156104745761047361041d565b5b80604052505050565b60006104876103f8565b9050610493828261044c565b919050565b6000819050919050565b6104ab81610498565b81146104b657600080fd5b50565b6000813590506104c8816104a2565b92915050565b600073ffffffffffffffffffffffffffffffffffffffff82169050919050565b60006104f9826104ce565b9050919050565b610509816104ee565b811461051457600080fd5b50565b60008135905061052681610500565b92915050565b60006040828403121561054257610541610407565b5b61054c604061047d565b9050600061055c848285016104b9565b600083015250602061057084828501610517565b60208301525092915050565b60006040828403121561059257610591610402565b5b60006105a08482850161052c565b91505092915050565b6000602082840312156105bf576105be610402565b5b60006105cd848285016104b9565b91505092915050565b600080604083850312156105ed576105ec610402565b5b60006105fb858286016104b9565b925050602061060c85828601610517565b9150509250929050565b61061f816104ee565b82525050565b600060208201905061063a6000830184610616565b92915050565b600064ffffffffff82169050919050565b61065a81610640565b82525050565b60006020820190506106756000830184610651565b92915050565b60006020828403121561069157610690610402565b5b600061069f84828501610517565b91505092915050565b600082825260208201905092915050565b7f4f776e61626c653a2063616c6c6572206973206e6f7420746865206f776e6572600082015250565b60006106ef6020836106a8565b91506106fa826106b9565b602082019050919050565b6000602082019050818103600083015261071e816106e2565b9050919050565b7f4f776e61626c653a206e6577206f776e657220697320746865207a65726f206160008201527f6464726573730000000000000000000000000000000000000000000000000000602082015250565b60006107816026836106a8565b915061078c82610725565b604082019050919050565b600060208201905081810360008301526107b081610774565b905091905056fea2646970667358221220d3a96c4384ab8292ebdf367fac301f4304d09f5fac1193106c6f6c15132946ee64736f6c634300080a0033",
  "linkReferences": {},
  "deployedLinkReferences": {}
}