{
  "_format": "hh-sol-artifact-1",
  "contractName": "Bar",
  "sourceName": "contracts/Bar.sol",
  "abi": [
    {
      "inputs": [
        {
          "internalType": "bool",
          "name": "yay",
          "type": "bool"
        }
      ],
      "name": "Doh",
      "type": "error"
    },
    {
      "anonymous": false,
      "inputs": [
        {
          "indexed": false,
          "internalType": "uint256",
          "name": "foo",
          "type": "uint256"
        }
      ],
      "name": "Transfer",
      "type": "event"
    },
    {
      "inputs": [],
      "name": "avar",
      "outputs": [
        {
          "internalType": "uint40",
          "name": "",
          "type": "uint40"
        }
      ],
      "stateMutability": "view",
      "type": "function"
    },
    {
      "inputs": [
        {
          "internalType": "uint256",
          "name": "bar",
          "type": "uint256"
        },
        {
          "internalType": "address",
          "name": "aar",
          "type": "address"
        }
      ],
      "name": "baap",
      "outputs": [],
      "stateMutability": "nonpayable",
      "type": "function"
    },
    {
      "inputs": [
        {
          "internalType": "uint256",
          "name": "bar",
          "type": "uint256"
        }
      ],
      "name": "boop",
      "outputs": [],
      "stateMutability": "nonpayable",
      "type": "function"
    },
    {
      "inputs": [
        {
          "components": [
            {
              "internalType": "uint256",
              "name": "paramA",
              "type": "uint256"
            },
            {
              "internalType": "address",
              "name": "paramB",
              "type": "address"
            }
          ],
          "internalType": "struct IBar.T",
          "name": "t",
          "type": "tuple"
        }
      ],
      "name": "set",
      "outputs": [],
      "stateMutability": "nonpayable",
      "type": "function"
    }
  ],
  "bytecode": "0x608060405234801561001057600080fd5b50610371806100206000396000f3fe608060405234801561001057600080fd5b506004361061004c5760003560e01c80630193c8b8146100515780632a82e3421461006d5780635d1ea94814610089578063ba3ebacb146100a5575b600080fd5b61006b60048036038101906100669190610266565b6100c3565b005b61008760048036038101906100829190610293565b6100c6565b005b6100a3600480360381019061009e91906102c0565b6100c9565b005b6100ad6100cd565b6040516100ba9190610320565b60405180910390f35b50565b50565b5050565b60008054906101000a900464ffffffffff1681565b6000604051905090565b600080fd5b600080fd5b6000601f19601f8301169050919050565b7f4e487b7100000000000000000000000000000000000000000000000000000000600052604160045260246000fd5b61013f826100f6565b810181811067ffffffffffffffff8211171561015e5761015d610107565b5b80604052505050565b60006101716100e2565b905061017d8282610136565b919050565b6000819050919050565b61019581610182565b81146101a057600080fd5b50565b6000813590506101b28161018c565b92915050565b600073ffffffffffffffffffffffffffffffffffffffff82169050919050565b60006101e3826101b8565b9050919050565b6101f3816101d8565b81146101fe57600080fd5b50565b600081359050610210816101ea565b92915050565b60006040828403121561022c5761022b6100f1565b5b6102366040610167565b90506000610246848285016101a3565b600083015250602061025a84828501610201565b60208301525092915050565b60006040828403121561027c5761027b6100ec565b5b600061028a84828501610216565b91505092915050565b6000602082840312156102a9576102a86100ec565b5b60006102b7848285016101a3565b91505092915050565b600080604083850312156102d7576102d66100ec565b5b60006102e5858286016101a3565b92505060206102f685828601610201565b9150509250929050565b600064ffffffffff82169050919050565b61031a81610300565b82525050565b60006020820190506103356000830184610311565b9291505056fea264697066735822122015bd39e619875fa581831c6fe0c33d663d494eba61171e234a45aa8ec0c8df8664736f6c634300080a0033",
  "linkReferences": {},
  "deployedLinkReferences": {}
}