{
  "_format": "hh-sol-artifact-1",
  "contractName": "ExampleContract",
  "sourceName": "contracts/ExampleContract.sol",
  "abi": [
    {
      "inputs": [
        {
          "internalType": "address",
          "name": "expected",
          "type": "address"
        },
        {
          "internalType": "address",
          "name": "actual",
          "type": "address"
        }
      ],
      "name": "RandomError",
      "type": "error"
    },
    {
      "anonymous": false,
      "inputs": [
        {
          "indexed": true,
          "internalType": "address",
          "name": "a",
          "type": "address"
        },
        {
          "indexed": false,
          "internalType": "uint256",
          "name": "b",
          "type": "uint256"
        }
      ],
      "name": "DoSomething",
      "type": "event"
    },
    {
      "inputs": [
        {
          "internalType": "uint256",
          "name": "num",
          "type": "uint256"
        }
      ],
      "name": "anotherThing",
      "outputs": [
        {
          "internalType": "uint256",
          "name": "",
          "type": "uint256"
        }
      ],
      "stateMutability": "pure",
      "type": "function"
    },
    {
      "inputs": [],
      "name": "boop",
      "outputs": [
        {
          "internalType": "address",
          "name": "",
          "type": "address"
        }
      ],
      "stateMutability": "view",
      "type": "function"
    },
    {
      "inputs": [
        {
          "internalType": "address",
          "name": "a",
          "type": "address"
        },
        {
          "internalType": "uint256",
          "name": "b",
          "type": "uint256"
        }
      ],
      "name": "doSomething",
      "outputs": [
        {
          "internalType": "uint256",
          "name": "foo",
          "type": "uint256"
        },
        {
          "internalType": "uint256",
          "name": "bar",
          "type": "uint256"
        }
      ],
      "stateMutability": "nonpayable",
      "type": "function"
    },
    {
      "inputs": [],
      "name": "pay",
      "outputs": [],
      "stateMutability": "payable",
      "type": "function"
    }
  ],
  "bytecode": "0x608060405234801561001057600080fd5b506102d1806100206000396000f3fe60806040526004361061003f5760003560e01c80631b9265b81461004457806328a831d11461004e5780637d803ad814610079578063cfe49f1e146100b7575b600080fd5b61004c6100f4565b005b34801561005a57600080fd5b506100636100f6565b6040516100709190610159565b60405180910390f35b34801561008557600080fd5b506100a0600480360381019061009b91906101db565b6100fb565b6040516100ae92919061022a565b60405180910390f35b3480156100c357600080fd5b506100de60048036038101906100d99190610253565b61010d565b6040516100eb9190610280565b60405180910390f35b565b600090565b60008060046002915091509250929050565b600060059050919050565b600073ffffffffffffffffffffffffffffffffffffffff82169050919050565b600061014382610118565b9050919050565b61015381610138565b82525050565b600060208201905061016e600083018461014a565b92915050565b600080fd5b61018281610138565b811461018d57600080fd5b50565b60008135905061019f81610179565b92915050565b6000819050919050565b6101b8816101a5565b81146101c357600080fd5b50565b6000813590506101d5816101af565b92915050565b600080604083850312156101f2576101f1610174565b5b600061020085828601610190565b9250506020610211858286016101c6565b9150509250929050565b610224816101a5565b82525050565b600060408201905061023f600083018561021b565b61024c602083018461021b565b9392505050565b60006020828403121561026957610268610174565b5b6000610277848285016101c6565b91505092915050565b6000602082019050610295600083018461021b565b9291505056fea2646970667358221220f5e89b381a9a18853d85c0b15f7508b02b1877fe918c4f52811548c46dc406bf64736f6c634300080a0033",
  "linkReferences": {},
  "deployedLinkReferences": {}
}