{
  "_format": "hh-sol-artifact-1",
  "contractName": "ExampleContract",
  "sourceName": "contracts/ExampleContract.sol",
  "abi": [
    {
      "inputs": [
        {
          "internalType": "address",
          "name": "expected",
          "type": "address"
        },
        {
          "internalType": "address",
          "name": "actual",
          "type": "address"
        }
      ],
      "name": "RandomError",
      "type": "error"
    },
    {
      "anonymous": false,
      "inputs": [
        {
          "indexed": true,
          "internalType": "address",
          "name": "a",
          "type": "address"
        },
        {
          "indexed": false,
          "internalType": "uint256",
          "name": "b",
          "type": "uint256"
        }
      ],
      "name": "DoSomething",
      "type": "event"
    },
    {
      "inputs": [
        {
          "internalType": "uint256",
          "name": "num",
          "type": "uint256"
        }
      ],
      "name": "anotherThing",
      "outputs": [
        {
          "internalType": "uint256",
          "name": "",
          "type": "uint256"
        }
      ],
      "stateMutability": "pure",
      "type": "function"
    },
    {
      "inputs": [],
      "name": "boop",
      "outputs": [
        {
          "internalType": "address",
          "name": "",
          "type": "address"
        }
      ],
      "stateMutability": "view",
      "type": "function"
    },
    {
      "inputs": [
        {
          "internalType": "address",
          "name": "a",
          "type": "address"
        },
        {
          "internalType": "uint256",
          "name": "b",
          "type": "uint256"
        }
      ],
      "name": "doSomething",
      "outputs": [
        {
          "internalType": "uint256",
          "name": "foo",
          "type": "uint256"
        },
        {
          "internalType": "uint256",
          "name": "bar",
          "type": "uint256"
        }
      ],
      "stateMutability": "nonpayable",
      "type": "function"
    },
    {
      "inputs": [
        {
          "internalType": "address",
          "name": "first",
          "type": "address"
        },
        {
          "internalType": "uint256",
          "name": "second",
          "type": "uint256"
        }
      ],
      "name": "extraFunc",
      "outputs": [
        {
          "internalType": "address",
          "name": "",
          "type": "address"
        }
      ],
      "stateMutability": "payable",
      "type": "function"
    },
    {
      "inputs": [
        {
          "internalType": "address",
          "name": "first",
          "type": "address"
        },
        {
          "internalType": "uint256",
          "name": "second",
          "type": "uint256"
        }
      ],
      "name": "extraFuncSecond",
      "outputs": [
        {
          "internalType": "uint256",
          "name": "a",
          "type": "uint256"
        },
        {
          "internalType": "uint256",
          "name": "",
          "type": "uint256"
        }
      ],
      "stateMutability": "payable",
      "type": "function"
    },
    {
      "inputs": [],
      "name": "libAddressManager",
      "outputs": [
        {
          "internalType": "address",
          "name": "",
          "type": "address"
        }
      ],
      "stateMutability": "view",
      "type": "function"
    },
    {
      "inputs": [],
      "name": "pay",
      "outputs": [],
      "stateMutability": "payable",
      "type": "function"
    }
  ],
  "bytecode": "0x608060405234801561001057600080fd5b506103cb806100206000396000f3fe6080604052600436106100705760003560e01c806328a831d11161004e57806328a831d1146100e0578063299ca4781461010b5780637d803ad814610136578063cfe49f1e1461017457610070565b806308ab4773146100755780630cf387bb146100a65780631b9265b8146100d6575b600080fd5b61008f600480360381019061008a91906102ab565b6101b1565b60405161009d9291906102fa565b60405180910390f35b6100c060048036038101906100bb91906102ab565b6101c2565b6040516100cd9190610332565b60405180910390f35b6100de6101ca565b005b3480156100ec57600080fd5b506100f56101cc565b6040516101029190610332565b60405180910390f35b34801561011757600080fd5b506101206101d1565b60405161012d9190610332565b60405180910390f35b34801561014257600080fd5b5061015d600480360381019061015891906102ab565b6101f5565b60405161016b9291906102fa565b60405180910390f35b34801561018057600080fd5b5061019b6004803603810190610196919061034d565b610207565b6040516101a8919061037a565b60405180910390f35b600080602a80915091509250929050565b600092915050565b565b600090565b60008054906101000a900473ffffffffffffffffffffffffffffffffffffffff1681565b60008060046002915091509250929050565b600060059050919050565b600080fd5b600073ffffffffffffffffffffffffffffffffffffffff82169050919050565b600061024282610217565b9050919050565b61025281610237565b811461025d57600080fd5b50565b60008135905061026f81610249565b92915050565b6000819050919050565b61028881610275565b811461029357600080fd5b50565b6000813590506102a58161027f565b92915050565b600080604083850312156102c2576102c1610212565b5b60006102d085828601610260565b92505060206102e185828601610296565b9150509250929050565b6102f481610275565b82525050565b600060408201905061030f60008301856102eb565b61031c60208301846102eb565b9392505050565b61032c81610237565b82525050565b60006020820190506103476000830184610323565b92915050565b60006020828403121561036357610362610212565b5b600061037184828501610296565b91505092915050565b600060208201905061038f60008301846102eb565b9291505056fea2646970667358221220355259035f53322ff63bbeeb4509aac09425dcf9cd0ee5146a850fe8799b5a7e64736f6c634300080a0033",
  "linkReferences": {},
  "deployedLinkReferences": {}
}