{
  "_format": "hh-sol-artifact-1",
  "contractName": "ExampleContract",
  "sourceName": "contracts/ExampleContract.sol",
  "abi": [
    {
      "inputs": [
        {
          "internalType": "address",
          "name": "expected",
          "type": "address"
        },
        {
          "internalType": "address",
          "name": "actual",
          "type": "address"
        }
      ],
      "name": "RandomError",
      "type": "error"
    },
    {
      "anonymous": false,
      "inputs": [
        {
          "indexed": true,
          "internalType": "address",
          "name": "a",
          "type": "address"
        },
        {
          "indexed": false,
          "internalType": "uint256",
          "name": "b",
          "type": "uint256"
        }
      ],
      "name": "DoSomething",
      "type": "event"
    },
    {
      "inputs": [
        {
          "internalType": "uint256",
          "name": "num",
          "type": "uint256"
        }
      ],
      "name": "anotherThing",
      "outputs": [
        {
          "internalType": "uint256",
          "name": "",
          "type": "uint256"
        }
      ],
      "stateMutability": "pure",
      "type": "function"
    },
    {
      "inputs": [],
      "name": "boop",
      "outputs": [
        {
          "internalType": "address",
          "name": "",
          "type": "address"
        }
      ],
      "stateMutability": "view",
      "type": "function"
    },
    {
      "inputs": [
        {
          "internalType": "address",
          "name": "a",
          "type": "address"
        },
        {
          "internalType": "uint256",
          "name": "b",
          "type": "uint256"
        }
      ],
      "name": "doSomething",
      "outputs": [
        {
          "internalType": "uint256",
          "name": "foo",
          "type": "uint256"
        },
        {
          "internalType": "uint256",
          "name": "bar",
          "type": "uint256"
        }
      ],
      "stateMutability": "nonpayable",
      "type": "function"
    },
    {
      "inputs": [],
      "name": "libAddressManager",
      "outputs": [
        {
          "internalType": "address",
          "name": "",
          "type": "address"
        }
      ],
      "stateMutability": "view",
      "type": "function"
    },
    {
      "inputs": [],
      "name": "pay",
      "outputs": [],
      "stateMutability": "payable",
      "type": "function"
    }
  ],
  "bytecode": "0x608060405234801561001057600080fd5b5061032b806100206000396000f3fe60806040526004361061004a5760003560e01c80631b9265b81461004f57806328a831d114610059578063299ca478146100845780637d803ad8146100af578063cfe49f1e146100ed575b600080fd5b61005761012a565b005b34801561006557600080fd5b5061006e61012c565b60405161007b91906101b3565b60405180910390f35b34801561009057600080fd5b50610099610131565b6040516100a691906101b3565b60405180910390f35b3480156100bb57600080fd5b506100d660048036038101906100d19190610235565b610155565b6040516100e4929190610284565b60405180910390f35b3480156100f957600080fd5b50610114600480360381019061010f91906102ad565b610167565b60405161012191906102da565b60405180910390f35b565b600090565b60008054906101000a900473ffffffffffffffffffffffffffffffffffffffff1681565b60008060046002915091509250929050565b600060059050919050565b600073ffffffffffffffffffffffffffffffffffffffff82169050919050565b600061019d82610172565b9050919050565b6101ad81610192565b82525050565b60006020820190506101c860008301846101a4565b92915050565b600080fd5b6101dc81610192565b81146101e757600080fd5b50565b6000813590506101f9816101d3565b92915050565b6000819050919050565b610212816101ff565b811461021d57600080fd5b50565b60008135905061022f81610209565b92915050565b6000806040838503121561024c5761024b6101ce565b5b600061025a858286016101ea565b925050602061026b85828601610220565b9150509250929050565b61027e816101ff565b82525050565b60006040820190506102996000830185610275565b6102a66020830184610275565b9392505050565b6000602082840312156102c3576102c26101ce565b5b60006102d184828501610220565b91505092915050565b60006020820190506102ef6000830184610275565b9291505056fea264697066735822122033f091eb15a2fe11d9d1bd6c35a328ea16bdfaf6c5196badd6e65c0a5207638564736f6c634300080a0033",
  "linkReferences": {},
  "deployedLinkReferences": {}
}