{
  "_format": "hh-sol-artifact-1",
  "contractName": "Foo",
  "sourceName": "contracts/Foo.sol",
  "abi": [
    {
      "inputs": [
        {
          "internalType": "address",
          "name": "",
          "type": "address"
        }
      ],
      "name": "nonces",
      "outputs": [
        {
          "internalType": "uint256",
          "name": "",
          "type": "uint256"
        }
      ],
      "stateMutability": "view",
      "type": "function"
    }
  ],
  "bytecode": "0x608060405234801561001057600080fd5b50610172806100206000396000f3fe608060405234801561001057600080fd5b506004361061002b5760003560e01c80637ecebe0014610030575b600080fd5b61004a600480360381019061004591906100db565b610060565b6040516100579190610121565b60405180910390f35b60006020528060005260406000206000915090505481565b600080fd5b600073ffffffffffffffffffffffffffffffffffffffff82169050919050565b60006100a88261007d565b9050919050565b6100b88161009d565b81146100c357600080fd5b50565b6000813590506100d5816100af565b92915050565b6000602082840312156100f1576100f0610078565b5b60006100ff848285016100c6565b91505092915050565b6000819050919050565b61011b81610108565b82525050565b60006020820190506101366000830184610112565b9291505056fea2646970667358221220ac17138f6fee24ce2c01741ff79287fde030b792b84ce332e5c46f78b09408d864736f6c634300080a0033",
  "linkReferences": {},
  "deployedLinkReferences": {}
}